:0C0000000C946A000C9400000C940000AA
:10000C000C9400000C9400000C94AB000C940000B9
:10001C000C9400000C9400000C9400000C94000054
:10002C000C9400000C9400000C9400000C94000044
:10003C000C9400000C9400000C9400000C94A20092
:10004C000C9400000C9400000C9400000C94000024
:10005C000C9400000C9400000C9400000C94000014
:10006C000C9400000C9477030C9400000C9400008A
:10007C00295C0F3C25392E33662025382E35662019
:10008C002025382E3566202025382E356620202553
:10009C00362E3366202025362E3366202025362E2C
:1000AC00336620200D0A20002D4E414E0000010029
:1000BC002D4E414E00494E460000040006057C00C2
:1000CC0001005A05BA000000F894EE27EFBBF1E0EE
:1000DC00F5BFE5BFF8E1A895A4B7A77FA4BFF0933F
:1000EC006000E09360008DE0A2E0BB27ED938A9561
:1000FC00E9F780E090E1A0E0B1E0ED930197E9F73A
:10010C00E6ECF0E085919591009761F0A591B591A1
:10011C0005901590BF01F00105900D920197E1F744
:10012C00FB01F0CFE0E0EEBBEFEFEDBFE0E1EEBFA7
:10013C00C0E0D5E00C947803EA93E0E0E5BDE1EB98
:10014C00E6BDE4E0E5BDE99118950A921A92FA929F
:10015C006A937A938A939A93AA93BA93EA93FA93AB
:10016C00EFB7EA93189B04C011D07AD0E1E07E2E51
:10017C00E991EFBFF991E991B991A991999189917F
:10018C0079916991F990199009901895E8EAEA9398
:10019C00E0E0EA93EA930E946F04F0E0E0933E05FE
:1001AC00F0933F05E9EAEA93E0E0EA93EA930E94D0
:1001BC006F04FE2FE0E0A0913E05B0913F05EA2BC5
:1001CC00FB2BE0933E05F0933F05EAEAEA93E0E06F
:1001DC00EA93EA930E946F04A0E4B5E0F0E0ED939B
:1001EC00FC93EBEAEA93E0E0EA93EA930E946F0453
:1001FC00FE2FE0E0A0914005B0914105EA2BFB2BCE
:10020C00E0934005F0934105ECEAEA93E0E0EA93D1
:10021C00EA930E946F04A2E4B5E0F0E0ED93FC9346
:10022C00EDEAEA93E0E0EA93EA930E946F04FE2F72
:10023C00E0E0A0914205B0914305EA2BFB2BE09343
:10024C004205F0934305E6EAEA93E0E0EA93EA9389
:10025C000E946F04A4E4B5E0F0E0ED93FC930895E4
:10026C00E8EAEA93E0E0EA93E1E0EA930E946F04A3
:10027C00A6E4B5E0F0E0ED93FC93E9EAEA93E0E064
:10028C00EA93E1E0EA930E946F04FE2FE0E0A09174
:10029C004605B0914705EA2BFB2BE0934605F093FE
:1002AC004705EAEAEA93E0E0EA93E1E0EA930E9488
:1002BC006F04A8E4B5E0F0E0ED93FC93EBEAEA936D
:1002CC00E0E0EA93E1E0EA930E946F04FE2FE0E0A5
:1002DC00A0914805B0914905EA2BFB2BE09348050A
:1002EC00F0934905ECEAEA93E0E0EA93E1E0EA9363
:1002FC000E946F04AAE4B5E0F0E0ED93FC93EDEA04
:10030C00EA93E0E0EA93E1E0EA930E946F04FE2FA7
:10031C00E0E0A0914A05B0914B05EA2BFB2BE09352
:10032C004A05F0934B050895E0913E05F0913F0589
:10033C000E94AD0C0E94560BA9E7B2E280EA99E349
:10034C000E94E00BE0930A05F0930B0560930C05FB
:10035C0070930D05E0914205F09143050E94AD0CA0
:10036C000E94560BA9E7B2E280EA99E30E94E00BE7
:10037C00E0930E05F0930F05609310057093110533
:10038C00E0914005F09141050E94AD0C0E94560B86
:10039C00A9E7B2E280EA99E30E94E00BE093120530
:1003AC00F09313056093140570931505E0914805BF
:1003BC00F09149050E94AD0C0E94560BA3ECB7E6D8
:1003CC008BEE9AE30E94E00BE0931605F093170571
:1003DC006093180570931905E0914A05F0914B054F
:1003EC000E94AD0C0E94560BA3ECB7E68BEE9AE381
:1003FC000E94E00BE0931A05F0931B0560931C051B
:10040C0070931D05E0914605F09147050E94AD0CD7
:10041C000E94560BA3ECB7E68BEE9AE30E94E00B1E
:10042C00E0931E05F0931F05609320057093210542
:10043C00A0910A05B0910B0580910C0590910D05CA
:10044C00E0E0F0E060E87FE30E94E00B7F936F93C5
:10045C00FF93EF93A0912205B09123058091240581
:10046C0090912505E0E0F0E060E87FE30E94E00B6E
:10047C00AF91BF918F919F910E941F0D0E94890B8C
:10048C00E0930A05F0930B0560930C0570930D0532
:10049C00A0910E05B0910F0580911005909111055A
:1004AC00E0E0F0E060E87FE30E94E00B7F936F9365
:1004BC00FF93EF93A0912605B09127058091280515
:1004CC0090912905E0E0F0E060E87FE30E94E00B0A
:1004DC00AF91BF918F919F910E941F0D0E94890B2C
:1004EC00E0930E05F0930F056093100570931105C2
:1004FC00A0911205B09113058091140590911505EA
:10050C00E0E0F0E060E87FE30E94E00B7F936F9304
:10051C00FF93EF93A0912A05B0912B0580912C05A8
:10052C0090912D05E0E0F0E060E87FE30E94E00BA5
:10053C00AF91BF918F919F910E941F0D0E94890BCB
:10054C00E0931205F0931305609314057093150551
:10055C00A0911605B0911705809118059091190579
:10056C00E0E0F0E060E87FE30E94E00B7F936F93A4
:10057C00FF93EF93A0912E05B0912F05809130053C
:10058C0090913105E0E0F0E060E070E00E94E00B5B
:10059C00AF91BF918F919F910E941F0D0E94890B6B
:1005AC00E0931605F09317056093180570931905E1
:1005BC00A0911A05B0911B0580911C0590911D0509
:1005CC00E0E0F0E060E87FE30E94E00B7F936F9344
:1005DC00FF93EF93A0913205B091330580913405D0
:1005EC0090913505E0E0F0E060E070E00E94E00BF7
:1005FC00AF91BF918F919F910E941F0D0E94890B0B
:10060C00E0931A05F0931B0560931C0570931D0570
:10061C00A0911E05B0911F05809120059091210598
:10062C00E0E0F0E060E87FE30E94E00B7F936F93E3
:10063C00FF93EF93A0913605B09137058091380563
:10064C0090913905E0E0F0E060E070E00E94E00B92
:10065C00AF91BF918F919F910E941F0D0E94890BAA
:10066C00E0931E05F0931F05609320057093210500
:10067C000895E0E2EA93EFE0EA93E0E0EA9329D10F
:10068C00E1E2EA93E4E2EA93E0E0EA9322D1E2E2E7
:10069C00EA93E8ECEA93E0E0EA931BD1E3E2EA9315
:1006AC00E0E1EA93E0E0EA9314D1E4E2EA93EFE0CC
:1006BC00EA93E0E013C0E0E2EA93E7ECEA93E1E0CE
:1006CC00EA9307D1E1E2EA93E9ECEA93E1E0EA93F9
:1006DC0000D1E2E2EA93E0E0EA93E1E0EA93F9D0B8
:1006EC0008951895E0E8E0936100E0E0E093610084
:1006FC00E2B9EDE0E1B9E1E4E5B9E0EBE4B9E0E061
:10070C00E8B9EFEFE7B9E0E0EBB9EAB9E2E8E4BD4C
:10071C00E3E0E5BDE0E0E6BDE7BDE8BDE0936900E0
:10072C00EDBBE2E0E0936B00E1E0E0936C00E3E012
:10073C00E0936800EBBBE1E0E0936E00E0E0E09357
:10074C006F00E0937000E0ECE0937C00ECE8E09349
:10075C007A00EEE5ECBDE1E0EDBDE2E5ECBDE1E0FB
:10076C00EDBDE0E0E093BC00E2E0E093C000E8E91E
:10077C00E093C100E6E0E093C200E0E0E093C50046
:10078C00E5E1E093C400E2E0E093C800E8E1E09327
:10079C00C900E6E0E093CA00E1E0E093CD00E3E0BD
:1007AC00E093CC00409A419A64DFF0DC84DF58DDA2
:1007BC00F09AE0EDF7E0FA93EA930E94DE0A78945F
:1007CC00E1E0E71511F00C946D047724F4013196F7
:1007DC004F01AADDE2E0F0E0E815F90511F00C9408
:1007EC006D04E0913A05F0913B0560913C057091E8
:1007FC003D05A0E0B0E080E89FE30E94900BE09301
:10080C003A05F0933B0560933C0570933D05E0E899
:10081C00F0E0FA93EA93E0910605F09107056091F8
:10082C00080570910905A0E0B0E080E090E40E941A
:10083C00E00BA0913A05B0913B0580913C0590915D
:10084C003D050E94E00B0E941A0DE0910A05F09103
:10085C000B0560910C0570910D050E941A0DE0912D
:10086C000E05F0910F0560911005709111050E9415
:10087C001A0DE0911205F091130560911405709119
:10088C0015050E941A0DE0911605F091170560915F
:10089C001805709119050E941A0DE0911A05F09136
:1008AC001B0560911C0570911D050E941A0DE091AD
:1008BC001E05F0911F0560912005709121050E9485
:1008CC001A0D8CE10E941A096E968824992478CF0F
:1008DC00FFCF1A9310E018B0E981A1E00E949F0CA1
:1008EC00E095E121E8B9EB81EA930E94D60A87E012
:1008FC008A95F1F7EA81EA930E94D60A1E2F87E0C7
:10090C008A95F1F718B0E981A1E00E949F0CE129CA
:10091C00E8B987E08A95F1F7E12F18810C94D40A95
:10092C00E091C000E072E1F3E881E093C6000C9422
:10093C00DC0AEA81EA93F4DFA881B981ED91FD919B
:10094C003196FE93EE93239608952497E0E0E88386
:10095C00E983E0E8EA83EFE3EB830E94320DEE8556
:10096C00FF85EF3FAFEFFA0759F4E885F985FA9365
:10097C00EA93E4EBF0E0FA93EA930E94700A49C11F
:10098C00EF3FAFE7FA0759F4E885F985FA93EA9354
:10099C00E5EBF0E0FA93EA930E94700A3AC1AB855A
:1009AC00A73010F0E6E0EB871B85E12F1150E0300B
:1009BC0079F0AC81BD818E819F81E0E0F0E060E256
:1009CC0071E40E94E00BEC83FD836E837F83EDCF9B
:1009DC00EC85FD856E857F850E942C0D81F430E0C1
:1009EC00AC81BD818E819F81E0E0F0E060E271E43A
:1009FC000E94E00BEC83FD836E837F837EC03B857E
:100A0C00EC81FD816E817F81AC85BD858E859F8556
:100A1C000E94730C09F010F40C943A05AC81BD8162
:100A2C008E819F81E0E0F0E060E271E40E94E00BD7
:100A3C00EC83FD836E837F83EC81FD816E817F81EE
:100A4C00AC85BD858E859F850E94730C60F0EDECA6
:100A5C00FCEC6CEC7DE30E94E00BEC87FD876E8771
:100A6C007F873F5FE9CF25C0EC81FD816E817F815F
:100A7C00AC85BD858E859F850E94730C60F4E0E08B
:100A8C00F0E060E271E40E94E00BEC87FD876E877A
:100A9C007F873150E9CFAC81BD818E819F81E0E0B1
:100AAC00F0E060E271E40E94E00BEC83FD836E8366
:100ABC007F83EC85FD856E857F85A0E0B0E080E0CE
:100ACC009FE30E94900BEC87FD876E877F87EC81FC
:100ADC00FD816E817F81AC85BD858E859F850E9451
:100AEC00730C58F0EDECFCEC6CEC7DE30E94E00B2D
:100AFC00EC87FD876E877F873F5F10E0EB85E11702
:100B0C0010F40C94D905AC81BD818E819F81EDECE4
:100B1C00FCEC6CEC7DE30E94E00BA0E0B0E080E02C
:100B2C009FE30E94900B0E941A0D0E94BF0AEC8357
:100B3C00FD836E837F83AC85BD858E859F850E94EA
:100B4C002E0C0E941D0B0E2FA885B9851196A88717
:100B5C00B9871197E02FE05DEC93E02FFF27662714
:100B6C0077270E94560BAC81BD818E819F810E949C
:100B7C00E00BAC85BD858E859F850E941F0D0E9464
:100B8C00890BEC87FD876E877F87E12F1F5FE03035
:100B9C0009F0B4CFA885B9851196A887B9871197A4
:100BAC00EEE2EC93ABCFE885F9853196E887F987CF
:100BBC003197AA85A08330302CF43195A885B9855E
:100BCC00EDE203C0A885B985EBE2EC93E885F985E5
:100BDC003196E887F9873196E887F9873197BF0115
:100BEC00A32FEAE00E94C00CE05DDB01EC93E885EA
:100BFC00F9853196E887F9873197BF01A32FEAE091
:100C0C000E94EA0CE05DDB01EC93A885B985E0E07D
:100C1C00EC930E94390D60960895EF9761970E94AE
:100C2C00300D10E0FE01E85AFF4F0190F081E02DED
:100C3C00E887F987FE01EA5AFF4F0190F081E02D19
:100C4C00EE83FF83AE81BF81E0E0F0E0ED93FC9397
:100C5C00DE01A45ABF4FED91FD913196FE93EE93B8
:100C6C003197E4912E2FE03011F40C941109E12FFF
:100C7C00E03069F4253211F411E008C02A93EF81B9
:100C8C00F885FA93EA93EB85FC850995C3C2E130AC
:100C9C00F1F4253249F42A93EF81F885FA93EA931B
:100CAC00EB85FC850995B5C212E0E0E0ED8B00E028
:100CBC002D3211F401E0AEC22B3219F4EBE2ED8BC4
:100CCC00A9C2203219F4E0E2ED8BA4C202C0E230DA
:100CDC0039F450E013E0203311F400689BC202C0D9
:100CEC00E33091F4203310F02A3308F007C0AAE067
:100CFC005A9F502DE22FE0535E0F8CC240E02E32F3
:100D0C0011F414E087C20FC0E43099F4203310F0D2
:100D1C002A3308F008C00062AAE04A9F402DE22F57
:100D2C00E0534E0F77C22C3619F4026015E072C2F4
:100D3C0004C0E53011F00C941009E22FE336B1F445
:100D4C00FE01E65AFF4F0190F081E02D3497DE0151
:100D5C00A65ABF4FED93FC93A481AA93EF81F8851B
:100D6C00FA93EA93EB85FC85099553C2E53411F0AF
:100D7C00E53609F404C0E63611F00C943107FE0197
:100D8C007696EE87FF87DE01A65ABF4F0D90BC9179
:100D9C00A02D0E940A0DEA87FB876C877D87FE01D8
:100DAC00E65AFF4F0190F081E02D3497DE01A65AF0
:100DBC00BF4FED93FC93AD85AA2322F0AD89AB32E6
:100DCC0069F020C0EA85FB856C857D850E94EA0A66
:100DDC00EA87FB876C877D87EDE2ED8B07FF0AC006
:100DEC00ED89EA93EF81F885FA93EA93EB85FC851C
:100DFC00099508C0EE85FF853196EE87FF87319700
:100E0C00AD89A08305FF46E0263671F4EA85FB85A3
:100E1C006C857D850E941A0D4A93EB89FC89FA93A7
:100E2C00EA930E9441090DC0EA85FB856C857D859E
:100E3C000E941A0D4A932A93EC89FD89FA93EA933E
:100E4C0084DDFE017696EE87FF87FA93EA930E9483
:100E5C007B0A1E2F45C0E337E9F4FE01E65AFF4F2B
:100E6C000190F081E02D3497DE01A65ABF4FED932F
:100E7C00FC93DE01A65ABF4F0D90BC91A02D149689
:100E8C000E94060DEE87FF87FA93EA930E947B0A75
:100E9C001E2F1FC0E03749F5FE01E65AFF4F0190A7
:100EAC00F081E02D3497DE01A65ABF4FED93FC93F1
:100EBC00DE01A65ABF4F0D90BC91A02D14960E9436
:100ECC00060DEE87FF87FA93EA930E94850A1E2F80
:100EDC0008600F77403011F0411708F001C0142F53
:100EEC0040E0E0E0EC8B30E0AAC0E43611F0E936EB
:100EFC0011F4046002C0E537C1F4EAE0EC8B01FFA9
:100F0C000AC0E0E0FAEC6AE97BE3E88BF98B6A8BC8
:100F1C007B8B1AE029C0E0E1F7E260E070E0E88B3F
:100F2C00F98B6A8B7B8B15E01FC0E83511F40860D8
:100F3C0004C0E83711F00C940F09E0E1EC8B01FFD1
:100F4C000AC0E0E0F0E060E070E1E88BF98B6A8BBE
:100F5C007B8B18E009C0E0E0F0E160E070E0E88B2A
:100F6C00F98B6A8B7B8B14E0403011F00F7701C04A
:100F7C0041E001FF16C0FE01E65AFF4F0190F081DF
:100F8C00E02D3497DE01A65ABF4FED93FC93DE01A2
:100F9C00A65ABF4F0D90BC91A02D14960E940A0D1D
:100FAC0031C002FF18C0FE01E65AFF4F0190F081DC
:100FBC00E02D3497DE01A65ABF4FED93FC93DE0172
:100FCC00A65ABF4F0D90BC91A02D14960E94060DF1
:100FDC000E94AD0C17C0FE01E65AFF4F0190F08144
:100FEC00E02D3497DE01A65ABF4FED93FC93DE0142
:100FFC00A65ABF4F0D90BC91A02D14960E94060DC1
:10100C0066277727EA87FB876C877D8702FF16C0E8
:10101C00AD85AA2362F4EA85FB856C857D850E94EB
:10102C00970CEA87FB876C877D87EDE2ED8BED896A
:10103C00E03019F01F5F4F5F01C00B7F342F00FDB4
:10104C001AC0151710F4351708F015C007FF08C0A3
:10105C0002FF04C00B7F2D89115001C020E301C099
:10106C0020E22A93EF81F885FA93EA93EB85FC85CD
:10107C0009955150E6CF141740F5006102FF17C0D7
:10108C000B7FED89EA93FE01E95AFF4F0190F08145
:10109C00E02DFA93EA93FE01E55AFF4F0190F0819F
:1010AC00E02D0995503009F0515011504150E0E3BA
:1010BC00EA93EF81F885FA93EA93EB85FC85099521
:1010CC00503009F051504150D6CF312FEC89E030DF
:1010DC00E9F43030D1F003FF06C0EE85FF85259191
:1010EC00EE87FF8705C0AE85BF852D91AE87BF8784
:1010FC002A93EF81F885FA93EA93EB85FC850995A1
:10110C00503009F051503150E4CF74C0E889F9895E
:10111C006A897B89AA85BB858C859D850E94C50CB7
:10112C002E2F2A3030F003FF02C0295C01C0295A4F
:10113C0001C0205D04FD32C0213360F4A889B98957
:10114C008A899B89A130E0E0BE07E0E08E07E0E0F1
:10115C009E0709F40BC0431740F4531710F000FF1F
:10116C0001C027C020E207FF19C020E3006102FF85
:10117C0015C00B7FED89EA93FE01E95AFF4F0190F0
:10118C00F081E02DFA93EA93FE01E55AFF4F0190AE
:10119C00F081E02D0995503009F051502A93EF81E0
:1011AC00F885FA93EA93EB85FC850995503009F0A4
:1011BC0051503150E889F9896A897B89AA85BB85A8
:1011CC008C859D850E94F60CEA87FB876C877D8752
:1011DC00EC89A889B9898A899B89FF276627772793
:1011EC000E94C50CE88BF98B6A8B7B8B0E942C0DB3
:1011FC0009F08CCF00FF0DC0503059F05150E0E297
:10120C00EA93EF81F885FA93EA93EB85FC850995CF
:10121C00F3CF10E01DCDAE81BF810E94060D0E9460
:10122C00370DEF966F960895FF92F82E26971A9326
:10123C000A93DE0114960E94930C8D01E0E0EC837E
:10124C00ED83EE83EF83DE0118960E94930C0E94CF
:10125C00060DFA93EA931A930A93EFE9F4E0FA93E2
:10126C00EA93FE013896FA93EA93D7DC1981088148
:10127C002896FF9008952497E0E0E883E983EA83B9
:10128C00EFE3EB831A930A93EB85FC85EF3FAFEF0B
:10129C00FA0759F4EE81FF81FA93EA93ECEBF0E054
:1012AC00FA93EA930E94700A11C1EF3FAFE7FA0775
:1012BC0059F4EE81FF81FA93EA93EDEBF0E0FA93A7
:1012CC00EA930E94700A02C1AC85AA2392F4E985C4
:1012DC00FA856B857C850E94EA0AE987FA876B8719
:1012EC007C87AE81BF811196AE83BF831197EDE2EF
:1012FC00EC93A885A73010F0E6E0E8871885E12F7D
:10130C001150E03079F0AA81BB818C819D81EDEC8C
:10131C00FCEC6CEC7DE30E94E00BEA83FB836C83BA
:10132C007D83EDCFEA81FB816C817D81A985BA85B6
:10133C008B859C850E94900BE987FA876B877C874D
:10134C0010E0E0E0F0E060E87FE3EA83FB836C838D
:10135C007D83EA81FB816C817D81A985BA858B8532
:10136C009C850E94730CE8F0AA81BB818C819D81C5
:10137C00E0E0F0E060E271E40E94E00BEA83FB83C2
:10138C006C837D831F5F173258F0EE81FF81FA93D7
:10139C00EA93E1ECF0E0FA93EA930E94700A96C0AB
:1013AC00D8CF103049F4AE81BF811196AE83BF8384
:1013BC001197E0E3EC9349C0E12F1150E03011F4A8
:1013CC000C942B0AAA81BB818C819D81EDECFCECE9
:1013DC006CEC7DE30E94E00BA0E0B0E080E09FE3CA
:1013EC000E94900B0E941A0D0E94BF0AEA83FB8395
:1013FC006C837D83A985BA858B859C850E942E0C78
:10140C000E941D0B0E2FAE81BF811196AE83BF8340
:10141C001197E02FE05DEC93E02FAA81BB818C81CA
:10142C009D81FF27662777270E94560B0E94E00BB1
:10143C00A985BA858B859C850E941F0D0E94890BFE
:10144C00E987FA876B877C87B7CFE885E030D1F1E5
:10145C00AE81BF811196AE83BF831197EEE2EC9300
:10146C00E885E150E887EF5F69F1A985BA858B853E
:10147C009C85E0E0F0E060E271E40E94E00BE9871B
:10148C00FA876B877C870E941D0B0E2FAE81BF8164
:10149C001196AE83BF831197E02FE05DEC93E02FA4
:1014AC00A985BA858B859C85FF27662777270E949F
:1014BC00560B0E941F0D0E94890BE987FA876B87D8
:1014CC007C87CECFAE81BF81E0E0EC93198108819F
:1014DC002D960895E991F991A991B991CD010590B5
:1014EC000D920020E1F7FC010895A991B991EE2726
:1014FC00FF276D91662311F03196FBCF0895AA2733
:10150C00BB27E991F9910590002011F01196FBCFC2
:10151C00FD0108957B816A81F981E88177FB770F62
:10152C0067FD7160972F9E5781F078F0983190F499
:10153C00AA27BB27882708948795B795A7959A95CE
:10154C00D1F7EA23FB23682305C0E8947727EE271D
:10155C00FF2766276F77769508F4606877F9A9916D
:10156C00B99189919991EA17FB076807790797FB5D
:10157C0008950E94100D0E941A0D0E94900A0E945C
:10158C00150D19F40E94100D09C0E6F70E94100DFC
:10159C00A0E0B0E080E89FE30E94890B24960895B8
:1015AC00E881EEBDEDB5E7FFFDCFEEB521960895D0
:1015BC00E991F991309639F088E893E10197F1F7C8
:1015CC00A8953197C9F7089530976040704009F09D
:1015DC0070580895552342F4503811F4E0FF04C0BC
:1015EC003196691F791F6BF050E8572711F45F9300
:1015FC00CFC05F3F31F0660F000C57956795752F84
:10160C0008955F9300200AF0CFC0C8C050E8192E8F
:10161C001522880F991F9527550F879550E8072E8F
:10162C000522660F771F7527550F679508956894E7
:10163C0001C0E8945F93F2DF703818F07F3F08F434
:10164C00A7C056E1571BAAF4519558300EF45930E7
:10165C0030F0EFEFFFEF6FEF7FE777F91AC07727E6
:10166C005523B9F0EE0FFF1F661F771F5A95D1F760
:10167C0010C07727583028F0EF2FF62F672F5850CF
:10168C00F9CF552331F076956795F795E7955A95EF
:10169C00D1F700200AF445D15F910895689401C0F8
:1016AC00E894309760407040B1F0002426F0772326
:1016BC0012F4009436D1172E7EE1112032F07A9577
:1016CC00EE0FFF1F661F111CF9CFEF2FF62F612DA8
:1016DC005F938ADF5F9108954F93AF01FD01DA01AB
:1016EC00AB01BC01CA01402D012C142E4F91089561
:1016FC00EA0FFB1F681F0895E095F0956095EF5F6A
:10170C00FF4F6F4F08955F9381DF903871F150E870
:10171C00152604C05F937ADF903839F1703821F1C7
:10172C00572F591B2BF112F4D7DFFACF583118F081
:10173C00AA27BB278827583028F0AB2FB82F88272B
:10174C005850F9CF552329F08695B795A7955A95FA
:10175C00D9F7502D512572F0CBDF38F46795F795FA
:10176C00E795739513F420C0B7DF3EDF5F910895C2
:10177C00D8F7FBCFEA1BFB0B680B51F010F400946D
:10178C00BBDF662392F3EE0FFF1F661F7A95CBF734
:10179C00EE27FF27662777275F910895EFEFFFEF7E
:1017AC006FE77FEF5F910895EFEFFFEF6FE77FE754
:1017BC005F9108955F932ADF703851F3903841F3AD
:1017CC0001240894791F23F41CF300203AF3ECCF86
:1017DC000F921F932F933F934F93112722279927F3
:1017EC00689FA0018F9F302D410D591F6B9F300DAD
:1017FC00411D591F8E9F27D0BF9F25D06A9F23D094
:10180C00BE9F1DD0AF9F1BD0AE9F110D291F391F3E
:10181C00491F591FE32FF42F652F522F4F913F91E2
:10182C002F911F910F9066232AF0550FEE1FFF1F6B
:10183C00661F02C073954BF2CDDE5F910895100DBB
:10184C00211D391F02C0200D311D491F591F08953C
:10185C005F93DCDE703821F411200AF49FCFA4CF03
:10186C00903809F495CF01240894970B1BF4D4F30A
:10187C000020F3CF792F1F932F933F934F93112475
:10188C001127222733274427552790E2AE17BF078D
:10189C008607410730F0AE1BBF0B860B410B08943B
:1018AC0001C08894551F221F331F111CAA1FBB1F78
:1018BC00881F441F9A9551F7F901612D4F913F9163
:1018CC002F911F91662332F0550FEE1FFF1F661FDD
:1018DC007A9543F27FDE5F91089599239AF07723EE
:1018EC0042F0971748F029F4AE17BF07860720F08F
:1018FC0031F09894889408959894089408951894C5
:10190C00889408957723C2F7971798F3A9F7EA17E5
:10191C00FB07680788F399F3ECCF0024AF0DB01DDB
:10192C000895F09560957095E195FF4F6F4F7F4F3F
:10193C000895EE230E2EEA2F19F0EE0F0A94E9F714
:10194C000895FE2FFF0FFF0B6F2F7F2F08956F2F22
:10195C00660F660B762F0895002498E0AA0F001CE2
:10196C000E1A10F40E0E01C0A1609A95B9F7EA2F69
:10197C00A02D089539D0F0DF0EF4E19508953F9332
:10198C004F935F93002411244427552730E2AA0F6C
:10199C00BB1F881F991F001C111C441F551F0E1ABA
:1019AC001F0A460B570B28F40E0E1F1E461F571FFF
:1019BC0001C0A1603A9559F7FD01BC01D001CA01E3
:1019CC005F914F913F910895E894A7FF02C0A195B4
:1019DC006894E7FDE195C0DFEA2F0EF4E1950895D8
:1019EC00CEDFFD01BC010895E894E7FF02C0E1954C
:1019FC006894A7FF04C0A19500F8039400FA089519
:101A0C00ED91FC9111970895ED91FD916D917C9163
:101A1C0013970895E881F9816A817B810895E883A1
:101A2C00F9836A837B8308957A936A93FA93EA9392
:101A3C000895182E862F612D192E972F712D1B2E80
:101A4C00BF2FF12D1A2EAE2FE12D08953097604047
:101A5C00704008955A934A933A932A931A930A938F
:101A6C0008955D814C813B812A81198108810895FB
:00000001FF
