:080000000C9441000C94000077
:100008000C9400000C9400000C9400000C94000068
:100018000C9400000C9400000C9400000C94000058
:100028000C9400000C9400000C9400000C94000048
:100038000C9400000C9400000C9400000C94000038
:100048000C948B000C9400000C9467000C94000036
:100058000C9400000C9400000C9400000C94000018
:100068000C9400000C9400001027E80364000A00B8
:1000780001000010000110000100F894EE27EFBB0A
:10008800F1E0F5BFE5BFF8E1A895A4B7A77FA4BF45
:10009800F0936000E09360008DE0A2E0BB27ED9351
:1000A8008A95E9F780E090E1A0E0B1E0ED9301974F
:1000B800E9F7E0E0EEBBEFEFEDBFE0E1EEBFC0E057
:1000C800D5E00C948C00EA93FA93EFB7EA931A936D
:1000D8000A931091C0000091C600E12FEC7181F4E1
:1000E800E42D4394F0E0E050FB4F0083E8E0E41592
:1000F80009F444246394E8E0E61511F46624F09AC0
:1001080009911991E991EFBFF991E991189518951D
:10011800E0E8E0936100E0E0E0936100E2B9E1B972
:10012800E5B9E4B9E8B9E7B9EBB9EAB9E4BDE3E0A0
:10013800E5BDE0E0E6BDE7BDE8BDE0938000E09303
:100148008100E0938500E0938400E0938700E093CA
:100158008600E0938900E0938800E0938B00E093A9
:100168008A00E093B600E093B000E093B100E0931A
:10017800B200E093B300E093B400E0936900EDBBF4
:10018800E0936800E1E0E0936E00E0E0E0936F0048
:10019800E0937000E2E0E093C000E8E9E093C1007A
:1001A800E6E0E093C200E0E0E093C500E0E1E09320
:1001B800C400E0E8E0BFE0E0E0937B00E0937F006C
:1001C800E0937A00ECBDE093BC007894FFCFFFCFBA
:00000001FF
