:040000000C946A00F2
:100004000C9400000C9400000C9400000C9400006C
:100014000C94AE010C9400000C9400000C940000AD
:100024000C9400000C9400000C945B010C940000F0
:100034000C9400000C9400000C9400000C9400003C
:100044000C9400000C9426010C9400000C94A20063
:100054000C9400000C9400000C9400000C9400001C
:100064000C9400000C9400000C9400000C9400000C
:100074000C9400000C940000010000000500295CB1
:100084000F3C2025392E3366202025332E30662060
:1000940020202531302E3766200D0A200025392EE8
:1000A40033662025392E35662020200D0A200000D5
:1000B4002D4E414E000001002D4E414E00494E464A
:1000C4000000050008007C0001009505BA0000004E
:1000D400F894EE27EFBBF1E0F5BFE5BFF8E1A89592
:1000E400A4B7A77FA4BFF0936000E09360008DE005
:1000F400A2E0BB27ED938A95E9F780E090E1A0E0C8
:10010400B1E0ED930197E9F7E6ECF0E08591959184
:10011400009761F0A591B59105901590BF01F0018C
:1001240005900D920197E1F7FB01F0CFE0E0EEBB03
:10013400EFEFEDBFE0E1EEBFC0E0D5E00C94A50227
:100144000A921A92FA926A937A938A939A93AA9346
:10015400BA93EA93FA93EFB7EA931A930A935C9AE1
:100164001091C0000091C6000091C6005E9A80E123
:100174008A95F1F7A5E50E94060488E592E00197C7
:10018400F1F75E98E0E0E093C000023731F4F09AB2
:100194005D9B02C05D9801C05D9A033709F4F09835
:1001A4000A3751F4E0E0E0930005E0930105E093A1
:1001B4000205E0930305F19A013719F4F298F39AD2
:1001C4002A98073719F4F29AF3982A9A013361F4BA
:1001D400F40131964F01E7E0F0E0E815F90514F475
:1001E40088249924C82C0CD1E12FEC71E1F4E0911E
:1001F4009205EF5FE0939205E150F0E0E657FA4F85
:100204000083A0919205A83019F4E0E0E0939205F0
:10021400A0919405AF5FA0939405A83021F4E0E089
:10022400E0939405F49A5C9809911991E991EFBFD0
:10023400F991E991B991A9919991899179916991EA
:10024400F9901990099018950A921A926A937A93E0
:100254008A939A93AA93BA93EA93FA93EFB7EA9399
:10026400E0E0E5BDE5E0E6BDE3E0E5BDE0910005E5
:10027400F09101056091020570910305AFE6B2E1CA
:1002840083E89AE30E94D70AE0930005F0930105FE
:100294006093020570930305E991EFBFF991E99129
:1002A400B991A9919991899179916991199009903C
:1002B40018950A921A92FA926A937A938A939A9365
:1002C400AA93BA93EA93FA93EFB7EA93E0E0E09340
:1002D400B100E5E0E093B200E4E0E093B100439ABA
:1002E40080E18A95F1F74398F39B28C02C9A88E122
:1002F4008A95F1F72C9880E18A95F1F7A0E00E94A5
:10030400280AF0E0E0938005F0938105A0E00E94C4
:10031400280AA2E8B5E0F0E0ED93FC93F0918005A3
:10032400E0E0DF01E0918205F0918305EA0FFB1F15
:10033400E0938005F0938105E1E05E2EE991EFBF43
:10034400F991E991B991A9919991899179916991D9
:10035400F9901990099018950A921A92FA926A9350
:100364007A938A939A93AA93BA93EA93FA93EFB7F8
:10037400EA93199903C05C980FD05C9AE991EFBF96
:10038400F991E991B991A991999189917991699199
:10039400F990199009901895E5E5ECBDE0E0EDBD04
:1003A400289888E08A95F1F7A2E10E94280AA0E043
:1003B4000E94280AFF2766277727E0935805F093C1
:1003C400590560935A0570935B05A0E00E94280AC2
:1003D400ACE5B5E0FF27662777270E94980CA0E0DC
:1003E4000E94280AA0E6B5E0FF27662777270E9427
:1003F400980C88E08A95F1F7289AE1E05E2E08953A
:10040400E5E5ECBDE0E0EDBD289880E18A95F1F7E3
:10041400A0E40E94280AA8E00E94280AA0E00E9402
:10042400280AAAE10E94280AAC2D0E94280AA1E009
:100434000E94280AA0E00E94280AA0E00E94280A3C
:10044400A0E00E94280AA0E00E94280AA0E40E94DA
:10045400280A80E18A95F1F7289A0895E0915805D1
:10046400F091590560915A0570915B05A0E0B0E0E8
:1004740081E090E00E94220C7F936F93FF93EF93AF
:10048400E0915C05F0915D0560915E0570915F05FA
:10049400A0E0B1E080E090E00E94220CAF91BF9117
:1004A4008F919F910E94DE0BE0916005F0916105B0
:1004B40060916205709163050E94DE0BE8E00E9482
:1004C400EB0BE0930405F093050560930605709328
:1004D4000705A0910805B091090580910A0590913E
:1004E4000B050E949D0A0E94D70AE0930805F09329
:1004F400090560930A0570930B05E4E6ED1509F50B
:10050400A0910805B091090580910A0590910B0509
:10051400E0E0F0E068EC72E40E94750BE0930C05F7
:10052400F0930D0560930E0570930F05DD24E0E054
:10053400E0930805E0930905E0930A05E0930B05B1
:10054400F198D3940895E0E8E0936100E0E0E0934B
:100554006100E2B9EFE0E1B9EDEFE5B9E4B9E0E05B
:10056400E8B9EFEFE7B9EBB9EEEFEAB9E2E8E4BDD9
:10057400E3E0E5BDE0E0E6BDE7BDE8BDE093B6003D
:10058400E093B000E4E0E093B100E0E0E093B20077
:10059400E093B300E093B400E0936900EDBBE09313
:1005A4006900EDBBE2E0E0936C00E0936800EBBB14
:1005B400E1E0E0936E00E0E0E0936F00E1E0E093BF
:1005C4007000E0ECE0937C00ECE8E0937A00EEE568
:1005D400ECBDE1E0EDBDE2E5ECBDE1E0EDBDE0E068
:1005E400E093BC00E093C000E8E9E093C100E6E0DA
:1005F400E093C200E0E0E093C500E0E1E093C400D2
:10060400E0E0E093C400E2E0E093C000E0E0E093C7
:10061400C500E5E0E093C400E2E0E093C000E0E060
:10062400E093C500EBE0E093C400E2E0E093C00097
:10063400E0E0E093C500E9E1E093C400E2E0E09388
:10064400C800E8E1E093C900E6E0E093CA00E1E015
:10065400E093CD00E3E0E093CC00D2DED1DE5E9AFD
:100664005C98289A2A9A7894F19B05C0E1E0E515F4
:1006740011F45524F3DEF09AF09BC4C0E1E0E515D3
:1006840009F0C0C05524E0915805F09159056091D6
:100694005A0570915B05A0E0B0E081E090E00E9413
:1006A400220C7F936F93FF93EF93E0915C05F0919D
:1006B4005D0560915E0570915F05A0E0B1E080E0AA
:1006C40090E00E94220CAF91BF918F919F910E9464
:1006D400DE0BE0916005F091610560916205709117
:1006E40063050E94DE0BE8E00E94EB0BE093040537
:1006F400F09305056093060570930705EFE0EA158E
:1007040009F07FC0AA245E9A88E08A95F1F7F29AEC
:10071400F29B46C0E6E8F0E0FA93EA93E091000524
:10072400F091010560910205709103050E94AC0CE3
:10073400EC2DFF27662777270E949D0AA0E0B0E0F2
:1007440080E89FE30E94270B0E94AC0CE0910C050B
:10075400F0910D0560910E0570910F05A0910405AF
:10076400B091050580910605909107050E94B80C8B
:100774000E94BB0C0E94D00AA0E0B0E080E291E4A9
:100784000E94270BDF01CB01E0E0F0E060E87FE4AA
:100794000E94750B0E94AC0C8CE00E946D082E9692
:1007A400F39B2AC0E1EAF0E0FA93EA93E0910005B2
:1007B400F091010560910205709103050E94AC0C53
:1007C400E0918005F0918105662777270E949D0AB4
:1007D400A0E0B0E080E290E40E94270BDF01CB01AF
:1007E400E0E0F0E060E877E40E94750B0E94AC0C56
:1007F40088E00E946D082A9680EF90E00197F1F757
:100804005E98A39431CFFFCFAA93E091C000E07229
:10081400E1F3E881E093C6000C942F0ABA93AA93FB
:10082400AA81F2DFA881B981ED91FD913196FE9301
:10083400EE9323960895BA93AA932497E0E0E8836D
:10084400E983E0E8EA83EFE3EB830E94CE0CEE85D4
:10085400FF85EF3FAFEFFA0749F4E885F985FA938E
:10086400EA93A4EBB0E00E94BA0944C1EF3FAFE7BA
:10087400FA0749F4E885F985FA93EA93A5EBB0E021
:100884000E94BA0937C1AB85A73010F0E6E0EB87C8
:100894001B85E12F1150E03079F0AC81BD818E8150
:1008A4009F81E0E0F0E060E271E40E94270BEC83BA
:1008B400FD836E837F83EDCFEC85FD856E857F851B
:1008C4000E94C80C81F430E0AC81BD818E819F818F
:1008D400E0E0F0E060E271E40E94270BEC83FD832A
:1008E4006E837F837DC03B85EC81FD816E817F813A
:1008F400AC85BD858E859F850E94BA0B09F008F4EE
:1009040026C0AC81BD818E819F81E0E0F0E060E291
:1009140071E40E94270BEC83FD836E837F83EC815B
:10092400FD816E817F81AC85BD858E859F850E940A
:10093400BA0B60F0EDECFCEC6CEC7DE30E94270B51
:10094400EC87FD876E877F873F5FE9CF25C0EC8109
:10095400FD816E817F81AC85BD858E859F850E94DA
:10096400BA0B60F4E0E0F0E060E271E40E94270B6F
:10097400EC87FD876E877F873150E9CFAC81BD81DD
:100984008E819F81E0E0F0E060E271E40E94270B39
:10099400EC83FD836E837F83EC85FD856E857F8587
:1009A400A0E0B0E080E09FE30E94D70AEC87FD87D7
:1009B4006E877F87EC81FD816E817F81AC85BD85EB
:1009C4008E859F850E94BA0B58F0EDECFCEC6CEC24
:1009D4007DE30E94270BEC87FD876E877F873F5F4F
:1009E40010E0EB85E11708F44FC0AC81BD818E8126
:1009F4009F81EDECFCEC6CEC7DE30E94270BA0E006
:100A0400B0E080E09FE30E94D70ADF01CB010E949F
:100A1400110AEC83FD836E837F83AC85BD858E854F
:100A24009F850E94750B0E94640A0E2FA885B985C4
:100A34001196A887B9871197E05DEC93E02FFF2703
:100A4400662777270E949D0AAC81BD818E819F8194
:100A54000E94270BAC85BD858E859F850E94BB0CAB
:100A64000E94D00AEC87FD876E877F87E12F1F5F86
:100A7400E03009F0B6CFA885B9851196A887B98763
:100A84001197EEE2EC93ADCFE885F9853196E887CE
:100A9400F9873197AA85A08330302CF43195A88545
:100AA400B985EDE203C0A885B985EBE2EC93E8854E
:100AB400F9853196E887F9873196E887F987319780
:100AC400BF01A32FEAE00E94350CE05DDB01EC934B
:100AD400E885F9853196E887F9873197BF01A32F17
:100AE400EAE00E945F0CE05DDB01EC93A885B98528
:100AF400E0E0EC930E94D50C60960895BA93AA9313
:100B0400EF9761970E94CC0C10E0FE01E85AFF4F6A
:100B14000190F081E02DE887F987FE01EA5AFF4F42
:100B24000190F081E02DEE83FF83AE81BF81E0E090
:100B3400F0E0ED93FC93DE01A45ABF4FED91FD91DB
:100B44003196FE93EE933197E4912E2FE03009F421
:100B5400B9C2E12FE03059F4253211F411E006C096
:100B64002A93AF81B885E985FA850995AAC2E1304F
:100B7400E1F4253239F42A93AF81B885E985FA8501
:100B840009959EC212E0E0E0ED8B00E02D3211F4F5
:100B940001E097C22B3219F4EBE2ED8B92C22032C2
:100BA40019F4E0E2ED8B8DC202C0E23039F450E07A
:100BB40013E0203311F4006884C202C0E33091F4DE
:100BC400203310F02A3308F007C0AAE05A9F502DB2
:100BD400E22FE0535E0F75C240E02E3211F414E0B0
:100BE40070C20FC0E43099F4203310F02A3308F0B7
:100BF40008C00062AAE04A9F402DE22FE0534E0F46
:100C040060C22C3619F4026015E05BC203C0E53003
:100C140009F057C2E22FE336A1F4FE01E65AFF4F72
:100C24000190F081E02D3497DE01A65ABF4FED9379
:100C3400FC93A481AA93AF81B885E985FA850995C7
:100C44003FC2E53411F0E53609F403C0E63609F095
:100C540068C0FE017696EE87FF87DE01A65ABF4F75
:100C64000D90BC91A02D0E94920CEA87FB876C87A3
:100C74007D87FE01E65AFF4F0190F081E02D349705
:100C8400DE01A65ABF4FED93FC93AD85AA2332F043
:100C9400AD89AB3279F0A032B9F01EC0EA85FB858C
:100CA4006C857D850E94310AEA87FB876C877D8786
:100CB400EDE2ED8B07FF08C0ED89EA93AF81B885BB
:100CC400E985FA85099508C0EE85FF853196EE879A
:100CD400FF873197AD89A08305FF46E0263661F48E
:100CE400EA85FB856C857D850E94AC0C4A93AB89B3
:100CF400BC890E9492080BC0EA85FB856C857D85C2
:100D04000E94AC0C4A932A93AC89BD8994DDFE0100
:100D14007696EE87FF87AE85BF850E94C7091E2F92
:100D240045C0E337E9F4FE01E65AFF4F0190F08134
:100D3400E02D3497DE01A65ABF4FED93FC93DE01FC
:100D4400A65ABF4F0D90BC91A02D14960E948E0CF4
:100D5400EE87FF87AE85BF850E94C7091E2F1FC07F
:100D6400E03749F5FE01E65AFF4F0190F081E02D8E
:100D74003497DE01A65ABF4FED93FC93DE01A65AC9
:100D8400BF4F0D90BC91A02D14960E948E0CEE873F
:100D9400FF87AE85BF850E94D3091E2F08600F7799
:100DA400403011F0411708F001C0142F40E0E0E09A
:100DB400EC8B30E0A9C0E43611F0E93611F404609C
:100DC40002C0E537C1F4EAE0EC8B01FF0AC0E0E0C1
:100DD400FAEC6AE97BE3E88BF98B6A8B7B8B1AE08C
:100DE40028C0E0E1F7E260E070E0E88BF98B6A8B01
:100DF4007B8B15E01EC0E83511F4086003C0E837AA
:100E040009F05EC1E0E1EC8B01FF0AC0E0E0F0E034
:100E140060E070E1E88BF98B6A8B7B8B18E009C08A
:100E2400E0E0F0E160E070E0E88BF98B6A8B7B8BAB
:100E340014E0403011F00F7701C041E001FF16C00B
:100E4400FE01E65AFF4F0190F081E02D3497DE0158
:100E5400A65ABF4FED93FC93DE01A65ABF4F0D90E7
:100E6400BC91A02D14960E94920C31C002FF18C0B0
:100E7400FE01E65AFF4F0190F081E02D3497DE0128
:100E8400A65ABF4FED93FC93DE01A65ABF4F0D90B7
:100E9400BC91A02D14960E948E0C0E94FD0B17C0CD
:100EA400FE01E65AFF4F0190F081E02D3497DE01F8
:100EB400A65ABF4FED93FC93DE01A65ABF4F0D9087
:100EC400BC91A02D14960E948E0C66277727EA8782
:100ED400FB876C877D8702FF16C0AD85AA2362F469
:100EE400EA85FB856C857D850E94E30BEA87FB8799
:100EF4006C877D87EDE2ED8BED89E03019F01F5FA3
:100F04004F5F01C00B7F342F00FD18C0151710F47C
:100F1400351708F013C007FF08C002FF04C00B7F99
:100F24002D89115001C020E301C020E22A93AF8132
:100F3400B885E985FA8509955150E8CF141720F54D
:100F4400006102FF15C00B7FED89EA93DE01A95A07
:100F5400BF4F0D90BC91A02DFE01E75AFF4F0190A9
:100F6400F081E02D0995503009F051501150415055
:100F7400E0E3EA93AF81B885E985FA8509955030B5
:100F840009F051504150DACF312FEC89E030D9F4D7
:100F94003030C1F003FF06C0EE85FF852591EE8752
:100FA400FF8705C0AE85BF852D91AE87BF872A9385
:100FB400AF81B885E985FA850995503009F051501B
:100FC4003150E6CF70C0E889F9896A897B89AA859E
:100FD400BB858C859D850E943A0C2E2F2A3030F0DB
:100FE40003FF02C0295C01C0295A01C0205D04FD31
:100FF40030C0213360F4A889B9898A899B89A130DA
:10100400E0E0BE07E0E08E07E0E09E0709F40BC0D5
:10101400431740F4531710F000FF01C023C020E22F
:1010240007FF17C020E3006102FF13C00B7FED89A7
:10103400EA93DE01A95ABF4F0D90BC91A02DFE0189
:10104400E75AFF4F0190F081E02D0995503009F0E7
:1010540051502A93AF81B885E985FA8509955030B6
:1010640009F051503150E889F9896A897B89AA8548
:10107400BB858C859D850E946B0CEA87FB876C87FA
:101084007D87EC89A889B9898A899B89FF27662786
:1010940077270E943A0CE88BF98B6A8B7B8B0E9432
:1010A400C80C09F090CF00FF0BC0503049F05150EC
:1010B400E0E2EA93AF81B885E985FA850995F5CF31
:1010C40010E039CDAE81BF810E948E0C0E94D30CFA
:1010D400EF966F960895FF92F82E26971A930A9327
:1010E400DE0114960E94DA0B8D01E0E0EC83ED83BF
:1010F400EE83EF83DE0118960E94DA0B0E948E0CB9
:10110400FA93EA931A930A93E0E1F4E0FA93EA93E8
:10111400DE011896F3DC198108812896FF90089562
:10112400BA93AA932497E0E0E883E983EA83EFE3A0
:10113400EB831A930A93EB85FC85EF3FAFEFFA0735
:1011440049F4EE81FF81FA93EA93ACEBB0E00E949C
:10115400BA090AC1EF3FAFE7FA0749F4EE81FF810C
:10116400FA93EA93ADEBB0E00E94BA09FDC0AC85F6
:10117400AA2392F4E985FA856B857C850E94310A5D
:10118400E987FA876B877C87AE81BF811196AE832E
:10119400BF831197EDE2EC93A885A73010F0E6E049
:1011A400E8871885E12F1150E03079F0AA81BB81DE
:1011B4008C819D81EDECFCEC6CEC7DE30E94270BB3
:1011C400EA83FB836C837D83EDCFEA81FB816C81B1
:1011D4007D81A985BA858B859C850E94D70AE9877C
:1011E400FA876B877C8710E0E0E0F0E060E87FE35B
:1011F400EA83FB836C837D83EA81FB816C817D813F
:10120400A985BA858B859C850E94BA0BD8F0AA81E2
:10121400BB818C819D81E0E0F0E060E271E40E949A
:10122400270BEA83FB836C837D831F5F173248F0AF
:10123400EE81FF81FA93EA93A1ECB0E00E94BA092F
:1012440093C0DACF103049F4AE81BF811196AE83DA
:10125400BF831197E0E3EC9347C0E12F1150E030D6
:1012640009F442C0AA81BB818C819D81EDECFCEC28
:101274006CEC7DE30E94270BA0E0B0E080E09FE3EC
:101284000E94D70ADF01CB010E94110AEA83FB8383
:101294006C837D83A985BA858B859C850E94750B9B
:1012A4000E94640A0E2FAE81BF811196AE83BF8364
:1012B4001197E05DEC93E02FAA81BB818C819D8125
:1012C400FF27662777270E949D0A0E94270BA9857E
:1012D400BA858B859C850E94BB0C0E94D00AE98745
:1012E400FA876B877C87B9CFE885E030C9F1AE8196
:1012F400BF811196AE83BF831197EEE2EC93E8852C
:10130400E150E887EF5F61F1A985BA858B859C85FB
:10131400E0E0F0E060E271E40E94270BE987FA87DD
:101324006B877C870E94640A0E2FAE81BF81119661
:10133400AE83BF831197E05DEC93E02FA985BA8556
:101344008B859C85FF27662777270E949D0A0E942C
:10135400BB0C0E94D00AE987FA876B877C87CFCFC2
:10136400AE81BF81E0E0EC93198108812D96089548
:10137400BA93AA93E991F991A991B991CD010590F4
:101384000D920020E1F7FC010895BA93AA93A99164
:10139400B991EE27FF276D91662311F03196FBCFAB
:1013A4000895BA93AA93AA27BB27E991F9910590C6
:1013B400002011F01196FBCFFD0108950E94B10C9D
:1013C4007B816A81F981E88177FB770F67FD716022
:1013D400972F9E5781F078F0983190F4AA27BB2775
:1013E400882708948795B795A7959A95D1F7EA2306
:1013F400FB23682305C0E8947727EE27FF27662799
:101404006F77769508F4606877F9A991B991899115
:101414009991EA17FB076807790797FB08950E94DB
:10142400B10C0E94A20C0E94E0090E94A70C19F4BE
:101434000E949D0C09C0E6F70E949D0CA0E0B0E05C
:1014440080E89FE30E94D00A24960895AA93E88135
:10145400EEBDEDB5E7FFFDCFEEB5219608953097CB
:101464006040704009F070580895552342F4503894
:1014740011F4E0FF04C03196691F791F6BF050E846
:10148400572711F45F93CFC05F3F31F0660F000C14
:1014940057956795752F08955F9300200AF0CFC084
:1014A400C8C050E8192E1522880F991F9527550F8B
:1014B400879550E8072E0522660F771F7527550F6D
:1014C40067950895689401C0E8945F93F2DF7038DB
:1014D40018F07F3F08F4A7C056E1571BAAF45195B2
:1014E40058300EF4593030F0EFEFFFEF6FEF7FE735
:1014F40077F91AC077275523B9F0EE0FFF1F661F3F
:10150400771F5A95D1F710C07727583028F0EF2F5E
:10151400F62F672F5850F9CF552331F076956795FC
:10152400F795E7955A95D1F700200AF44AD15F91CF
:101534000895689401C0E894309760407040B1F019
:10154400002426F0772312F400943BD1172E7EE179
:10155400112032F07A95EE0FFF1F661F111CF9CF90
:10156400EF2FF62F612D5F938ADF5F9108954F93DC
:10157400AF01FD01DA01AB01BC01CA01402D012C10
:10158400142E4F910895EA0FFB1F681F0895E095EC
:10159400F0956095EF5FFF4F6F4F08955F9381DF84
:1015A400903871F150E8152604C05F937ADF9038C3
:1015B40039F1703821F1572F591B2BF112F4D7DF71
:1015C400FACF583118F0AA27BB278827583028F0BB
:1015D400AB2FB82F88275850F9CF552329F086957B
:1015E400B795A7955A95D9F7502D512572F0CBDFB1
:1015F40038F46795F795E795739513F420C0B7DF32
:101604003EDF5F910895D8F7FBCFEA1BFB0B680B15
:1016140051F010F40094BBDF662392F3EE0FFF1F2A
:10162400661F7A95CBF7EE27FF27662777275F910A
:101634000895EFEFFFEF6FE77FEF5F910895EFEF0E
:10164400FFEF6FE77FE75F9108955F932ADF7038BC
:1016540051F3903841F301240894791F23F41CF3C7
:1016640000203AF3ECCF0F921F932F933F934F93A5
:10167400112722279927689FA0018F9F302D410DA4
:10168400591F6B9F300D411D591F8E9F27D0BF9F3F
:1016940025D06A9F23D0BE9F1DD0AF9F1BD0AE9F85
:1016A400110D291F391F491F591FE32FF42F652FCF
:1016B400522F4F913F912F911F910F9066232AF043
:1016C400550FEE1FFF1F661F02C073954BF2CDDE50
:1016D4005F910895100D211D391F02C0200D311D89
:1016E400491F591F08955F93DCDE703821F41120DF
:1016F4000AF49FCFA4CF903809F495CF012408941D
:10170400970B1BF4D4F30020F3CF792F1F932F935F
:101714003F934F931124112722273327442755271A
:1017240090E2AE17BF078607410730F0AE1BBF0B30
:10173400860B410B089401C08894551F221F331F48
:10174400111CAA1FBB1F881F441F9A9551F7F9014A
:10175400612D4F913F912F911F91662332F0550FC8
:10176400EE1FFF1F661F7A9543F27FDE5F91089597
:1017740099239AF0772342F0971748F029F4AE178B
:10178400BF07860720F031F09894889408959894C0
:10179400089408951894889408957723C2F79717A6
:1017A40098F3A9F7EA17FB07680788F399F3ECCFD6
:1017B4000024AF0DB01D0895AE0FBF1F861F971FE5
:1017C4000895F09560957095E195FF4F6F4F7F4FA9
:1017D4000895EE230E2EFD01BC0131F0EE0FFF1F24
:1017E400661F771F0A94D1F70895FE2FFF0FFF0B92
:1017F4006F2F7F2F08956F2F660F660B762F089536
:101804007A9F702D6B9F700DF89F700DE99F700D7E
:101814006A9F602D710DFB9F600D711DE89F600D27
:10182400711D8827FA9FF02D610D781FEB9FF00D35
:10183400611D781FEA9FE02DF10D681F781F089540
:1018440058D0DEDF0EF4BDDF0895002498E0AA0F1F
:10185400001C0E1A10F40E0E01C0A1609A95B9F77F
:10186400EA2FA02D089539D0F0DF0EF4E195089504
:101874003F934F935F93002411244427552730E26C
:10188400AA0FBB1F881F991F001C111C441F551F42
:101894000E1A1F0A460B570B28F40E0E1F1E461F66
:1018A400571F01C0A1603A9559F7FD01BC01D00151
:1018B400CA015F914F913F910895E894A7FF02C038
:1018C400A1956894E7FDE195C0DFEA2F0EF4E19558
:1018D4000895CEDFFD01BC010895E894E7FF02C03E
:1018E400E1956894A7FF04C0A19500F8039400FA59
:1018F4000895E89477FF02C064DF689497FF0BC0F3
:101904000024A095B095809590951196801D901D0A
:1019140000F8039400FA0895ED91FC91119708954D
:10192400ED91FD916D917C9113970895ED93FD9345
:101934006D937C930895E881F9816A817B81089590
:10194400A881B9818A819B810895E883F9836A8398
:101954007B8308957A936A93FA93EA9308959A930A
:101964008A93BA93AA930895689401C0E89401D025
:10197400E3DD182E862F612D192E972F712D1B2E26
:10198400BF2FF12D1A2EAE2FE12D08953097604010
:10199400704008955A934A933A932A931A930A9358
:1019A40008955D814C813B812A81198108810895C4
:00000001FF
