:080000000C9456000C94000062
:100008000C9400000C9400000C9400000C94000068
:100018000C9400000C9400000C9400000C94000058
:100028000C9400000C94BC000C9400000C9400008C
:100038000C9400000C9400000C9400000C94000038
:100048000C94B3000C9400000C948E000C940000E7
:100058000C9400000C9400000C9400000C94000018
:100068000C9400000C940000050068656C6C6F200F
:1000780061746D6567613634342076617369612017
:100088000D0A00002D4E414E000001002D4E414E3C
:1000980000494E46000001000400700001000805F8
:1000A80092000000F894EE27EFBBF1E0F5BFE5BF42
:1000B800F8E1A895A4B7A77FA4BFF0936000E093E8
:1000C80060008DE0A2E0BB27ED938A95E9F780E018
:1000D80090E1A0E0B1E0ED930197E9F7EEE9F0E0F7
:1000E80085919591009761F0A591B591059015902E
:1000F800BF01F00105900D920197E1F7FB01F0CFE8
:10010800E0E0EEBBEFEFEDBFE0E1EEBFC0E0D5E031
:100118000C94D300EA93FA93EFB7EA931A930A93ED
:100128001091C0000091C600F19AE12FEC7181F4A2
:10013800E32D3394F0E0E050FB4F0083E8E0E31553
:1001480009F433245394E8E0E51511F45524F09AA2
:1001580009911991E991EFBFF991E9911895EA93FD
:10016800E0E0E5BDE5E0E6BDE3E0E5BDE991189531
:100178008A93EA93EFB7EA935F98E0E0E093B100DF
:100188004092B200E3E0E093B10085E38A95F1F78D
:100198005F9AE991EFBFE991899118950895E0E890
:1001A800E0936100E0E0E0936100E2B9E1B9E5B90C
:1001B800E0EBE4B9E0E0E8B9E7B9EBB9EFEFEAB9A9
:1001C800E0E0E4BDE3E0E5BDE0E0E6BDE7BDE8BDB5
:1001D800E0938000E0938100E0938500E093840041
:1001E800E0938700E0938600E0938900E09388001D
:1001F800E0938B00E0938A00E093B600E093B000B0
:10020800E5E0E093B100E0E0E093B200E093B300F2
:10021800E093B400E0936900EDBBE0936800E1E08F
:10022800E0936E00E0E0E0936F00E1E0E09370009F
:10023800E2E0E093C000E8E9E093C100E6E0E09383
:10024800C200E0E0E093C500E0E1E093C400E0E82C
:10025800E0BFE0E0E0937B00E0937F00E0937A006A
:10026800E1E5ECBDE1E0EDBDE0E0E093BC007894B1
:100278005E985C9A5D9AF19B12C090DF5E9A8BE65D
:100288008A95F1F7E2E7F0E0FA93EA9380E00FD37A
:10029800229680E991E00197F1F75E98F198EBCF0B
:1002A800FFCFAA93E091C000E072E1F3E881E09308
:1002B800C60021960895BA93AA93AA81F2DFA8816D
:1002C800B981ED91FD913196FE93EE9323960895B1
:1002D8000E948F05E0E8EA83EFE3EB830E94C00801
:1002E800EE85FF85EF3FAFEFFA0749F4E885F9851A
:1002F800FA93EA93ACE8B0E00E948004B7C0EF3FFD
:10030800AFE7FA0749F4E885F985FA93EA93ADE887
:10031800B0E00E948004AAC0AB85A73010F0E6E0E8
:10032800EB871B85E12F1150E03019F00E949605EC
:10033800F9CFEC85FD856E857F850E94BA0821F48A
:1003480030E00E9496052DC03B850E94A50509F066
:1003580008F40BC00E9496050E94A50528F00E948B
:10036800B0050E94B505F8CF0DC00E94A50540F460
:100378000E94B0050E94C1050E94C8053150F5CF02
:100388000E949605EC85FD856E857F850E94CD05CA
:100398000E94C8050E94A50520F00E94B0050E9491
:1003A800B50510E0EB85E117A8F1AC81BD818E8120
:1003B8009F810E94D4050E94CD05DF01CB010E94D8
:1003C800D704EC83FD836E837F830E94B0050E946F
:1003D800BA070E94A9060E2F0E94DB050E94E205BB
:1003E800FF27662777270E94E206AC81BD818E81B0
:1003F8009F810E946C070E94B0050E94E7050E9439
:10040800C805E12F1F5FE03069F60E94DB05EEE2C8
:10041800EC93C8CF0E94EC053197AA85A0833030B1
:100428002CF43195A885B985EDE203C0A885B98576
:10043800EBE2EC930E94EC050E94EC053197BF01BA
:10044800A32FEAE00E944408E05DDB01EC930E94E0
:10045800EC053197BF01A32FEAE00E946E08E05D2A
:10046800DB01EC93A885B985E0E0EC930E94C7080E
:1004780060960895BA93AA93EF9761970E94BE0871
:1004880010E0FE01E85AFF4F0190F081E02DE88767
:10049800F987FE01EA5AFF4F0190F081E02DEE83C3
:1004A800FF83AE81BF81E0E0F0E0ED93FC93DE01D5
:1004B800A45ABF4FED91FD913196FE93EE9331977B
:1004C800E4912E2FE03009F4E9C1E12FE03039F44E
:1004D800253211F411E002C00E94F205DEC1E130BC
:1004E800C1F4253219F40E94F205D6C112E0E0E009
:1004F800ED8B00E02D3211F401E0CFC12B3219F45D
:10050800EBE2ED8BCAC1203219F4E0E2ED8BC5C1F4
:1005180002C0E23039F450E013E0203311F40068EF
:10052800BCC102C0E33091F4203310F02A3308F044
:1005380007C0AAE05A9F502DE22FE0535E0FADC1CD
:1005480040E02E3211F414E0A8C10FC0E43099F451
:10055800203310F02A3308F008C00062AAE04A9F4E
:10056800402DE22FE0534E0F98C12C3619F402604B
:1005780015E093C103C0E53009F08FC1E22FE336DF
:1005880059F40E94F9050E9400060E94F905A48109
:10059800AA930E94070680C1E53411F0E53609F4F4
:1005A80003C0E63609F048C0FE017696EE87FF875D
:1005B8000E940D060E948E080E9414060E941906C9
:1005C800AD85AA2332F0AD89AB3259F0A03281F063
:1005D80017C00E941B060E9476060E941406EDE2D0
:1005E800ED8B07FF05C0ED89EA930E94070608C056
:1005F800EE85FF853196EE87FF873197AD89A08319
:1006080005FF46E0263651F40E941B060E94A30807
:100618004A93AB89BC890E94EE0409C00E941B065C
:100628000E94A3084A932A93AC89BD8951DEFE0132
:1006380076960E9420061EC0E33739F40E941906F8
:100648000E9428060E9420060EC0E037C1F40E94CE
:1006580019060E942806EE87FF87AE85BF850E948F
:1006680099041E2F08600F77403011F0411708F0E9
:1006780001C0142F40E0E0E0EC8B30E06DC0E436C0
:1006880011F0E93611F4046002C0E537A1F4EAE09C
:10069800EC8B01FF08C0E0E0FAEC6AE97BE30E941A
:1006A8002D061AE022C0E0E1F7E260E070E00E9467
:1006B8002D0615E01AC0E83511F4086003C0E837C4
:1006C80009F0EAC0E0E1EC8B01FF08C0E0E0F0E0EF
:1006D80060E070E10E942D0618E007C0E0E0F0E15C
:1006E80060E070E00E942D0614E0403011F00F77B2
:1006F80001C041E001FF08C00E9419060E940D06D2
:1007080014960E948E080FC002FF07C00E941906A7
:100718000E9428060E94310806C00E9419060E94FD
:10072800280666277727EA87FB876C877D8702FF7D
:1007380012C0AD85AA2342F40E941B060E9423081A
:100748000E941406EDE2ED8BED89E03019F01F5F91
:100758004F5F01C00B7F342F00FD14C0151710F434
:10076800351708F00FC007FF08C002FF04C00B7F51
:100778002D89115001C020E301C020E20E94F2053A
:100788005150ECCF141790F4006102FF06C00E948C
:10079800320609F0515011504150E0E3EA930E94AB
:1007A8000706503009F051504150ECCF312FEC89F9
:1007B800E030B9F43030A1F003FF06C0EE85FF85C4
:1007C8002591EE87FF8705C0AE85BF852D91AE8741
:1007D800BF870E94F205503009F051503150EACFDE
:1007E80051C00E9444060E9449082E2F2A3030F03A
:1007F80003FF02C0295C01C0295A01C0205D04FD25
:1008080021C0213360F4A889B9898A899B89A130DC
:10081800E0E0BE07E0E08E07E0E09E0709F40BC0C9
:10082800431740F4531710F000FF01C010C020E236
:1008380007FF08C020E3006102FF04C00E943206DF
:1008480009F051500E94F205503009F051503150D2
:100858000E9444060E947A080E941406EC89A8891E
:10086800B9898A899B89FF27662777270E944908C3
:100878000E942D06E889F9896A897B890E94BA084D
:1008880009F0AFCF00FF08C0503031F05150E0E21E
:10089800EA930E940706F8CF10E009CEAE81BF8127
:1008A8000E948A080E94C508EF966F960895FF92E5
:1008B800F82E26971A930A93DE0114960E941F08B1
:1008C8008D01E0E0EC83ED83EE83EF83DE01189683
:1008D8000E941F080E948A08FA93EA931A930A93BF
:1008E800EFE5F1E0FA93EA93DE011896C3DD19818A
:1008F80008812896FF900895BA93AA93E991F991EF
:10090800A991B991CD0105900D920020E1F7FC0164
:100918000895BA93AA93A991B991EE27FF276D91EB
:10092800662311F03196FBCF0895BA93AA93AA27AC
:10093800BB27E991F9910590002011F01196FBCFA2
:10094800FD0108950E94A8087B816A81F981E881E8
:1009580077FB770F67FD7160972F9E5781F078F0CE
:10096800983190F4AA27BB27882708948795B795CC
:10097800A7959A95D1F7EA23FB23682305C0E89445
:100988007727EE27FF2766276F77769508F4606844
:1009980077F9A991B99189919991EA17FB076807A5
:1009A800790797FB08950E94A8080E9499080E9459
:1009B800A6040E949E0819F40E94940809C0E6F74C
:1009C8000E949408A0E0B0E080E89FE30E94150729
:1009D80024960895A0D0E0E0EA83EFE3EB831A932E
:1009E8000A93EB85FC85EF3FAFEFFA0731F451D15D
:1009F800A4E9B0E00E9480048AC0EF3FAFE7FA079D
:100A080031F447D1A5E9B0E00E94800480C0AC85EC
:100A1800AA2352F4E985FA856B857C850E947606BF
:100A28003DD141D1EDE2EC93A885A73010F0E6E086
:100A3800E8871885E12F1150E03021F03BD1B0D084
:100A48003ED1F8CF41D10E941C0728D110E0E0E048
:100A5800F0E060E87FE333D137D10E94FF0768F008
:100A680029D18BD02CD11F5F173230F012D1A9E9D0
:100A7800B0E00E9480044BC0EFCF103021F413D1B6
:100A8800E0E3EC9320C0E12F1150E030E1F012D107
:100A980087D07FD0DF01CB010E94D70410D114D1B9
:100AA8000E94BA070E94A9060E2FFDD087D0F0E059
:100AB80001D10E9431080E94E2060E946C070DD104
:100AC80082D0ECD0E0CFE885E030E9F0ECD0EEE27F
:100AD800EC93E885E150E887EF5FA9F0FED04DD0B0
:100AE800DDD0E985FA856B857C850E94A9060E2FE5
:100AF800DAD064D0F0E0F1D00E9431080E94E2061A
:100B080062D0CCD0E6CFAE81BF81E0E0EC93198112
:100B180008812D960895BA93AA932497E0E0E88374
:100B2800E9830895AC81BD818E819F81E0E0F0E08A
:100B380060E271E40E946C07EC83FD836E837F831F
:100B48000895EC81FD816E817F81AC85BD858E85A0
:100B58009F850E94FF070895AC85BD858E859F857A
:100B68000895EDECFCEC6CEC7DE30E946C07EC87DF
:100B7800FD876E877F873F5F0895E0E0F0E060E2E1
:100B880071E40E946C070895EC87FD876E877F8764
:100B98000895A0E0B0E080E09FE30E941C0708955C
:100BA800EDECFCEC6CEC7DE30E946C070895A885E5
:100BB800B9851196A887B98711970895E02FE05D48
:100BC800EC93E02F08950E94AD080E941507089540
:100BD800E885F9853196E887F98708952A93AF81E2
:100BE800B885E985FA8509950895FE01E65AFF4F0B
:100BF8000190F081E02D08953497DE01A65ABF4F89
:100C0800ED93FC930895AF81B885E985FA85099538
:100C18000895DE01A65ABF4F0D90BC91A02D0895EE
:100C2800EA87FB876C877D870895DFDFE5CFEA8554
:100C3800FB856C857D850895EE87FF87AE85BF852A
:100C48000E948D041E2F0895E4DF14960E948A08DE
:100C58000895E88BF98B6A8B7B8B08950B7FED8960
:100C6800EA93DE01A95ABF4F0D90BC91A02DFE0159
:100C7800E75AFF4F0190F081E02D09955030089513
:100C8800E889F9896A897B89AA85BB858C859D85D0
:100C98000895EE81FF81FA93EA930895E987FA8728
:100CA8006B877C870895AE81BF811196AE83BF8321
:100CB80011970895AA81BB818C819D810895EA834B
:100CC800FB836C837D830895EA81FB816C817D8140
:100CD800A985BA858B859C850895A985BA858B8554
:100CE8009C85089530976040704009F070580895C9
:100CF800552342F4503811F4E0FF04C03196691FBF
:100D0800791F6BF050E8572711F45F93CFC05F3F0E
:100D180031F0660F000C57956795752F08955F930E
:100D280000200AF0CFC0C8C050E8192E1522880F3D
:100D3800991F9527550F879550E8072E0522660FAE
:100D4800771F7527550F67950895689401C0E89433
:100D58005F93F2DF703818F07F3F08F4A7C056E1C0
:100D6800571BAAF4519558300EF4593030F0EFEF74
:100D7800FFEF6FEF7FE777F91AC077275523B9F0B0
:100D8800EE0FFF1F661F771F5A95D1F710C0772700
:100D9800583028F0EF2FF62F672F5850F9CF5523EA
:100DA80031F076956795F795E7955A95D1F7002034
:100DB8000AF445D15F910895689401C0E89430978A
:100DC80060407040B1F0002426F0772312F40094BC
:100DD80036D1172E7EE1112032F07A95EE0FFF1FE3
:100DE800661F111CF9CFEF2FF62F612D5F938ADF55
:100DF8005F9108954F93AF01FD01DA01AB01BC018A
:100E0800CA01402D012C142E4F910895EA0FFB1FA3
:100E1800681F0895E095F0956095EF5FFF4F6F4F5D
:100E280008955F9381DF903871F150E8152604C06A
:100E38005F937ADF903839F1703821F1572F591BB9
:100E48002BF112F4D7DFFACF583118F0AA27BB27B5
:100E58008827583028F0AB2FB82F88275850F9CF5B
:100E6800552329F08695B795A7955A95D9F7502D0A
:100E7800512572F0CBDF38F46795F795E7957395B0
:100E880013F420C0B7DF3EDF5F910895D8F7FBCF9A
:100E9800EA1BFB0B680B51F010F40094BBDF6623D0
:100EA80092F3EE0FFF1F661F7A95CBF7EE27FF2709
:100EB800662777275F910895EFEFFFEF6FE77FEFE2
:100EC8005F910895EFEFFFEF6FE77FE75F91089578
:100ED8005F932ADF703851F3903841F30124089466
:100EE800791F23F41CF300203AF3ECCF0F921F93E1
:100EF8002F933F934F93112722279927689FA0018B
:100F08008F9F302D410D591F6B9F300D411D591F6B
:100F18008E9F27D0BF9F25D06A9F23D0BE9F1DD00C
:100F2800AF9F1BD0AE9F110D291F391F491F591F95
:100F3800E32FF42F652F522F4F913F912F911F913F
:100F48000F9066232AF0550FEE1FFF1F661F02C081
:100F580073954BF2CDDE5F910895100D211D391F59
:100F680002C0200D311D491F591F08955F93DCDE13
:100F7800703821F411200AF49FCFA4CF903809F4D7
:100F880095CF01240894970B1BF4D4F30020F3CFDA
:100F9800792F1F932F933F934F93112411272227C3
:100FA80033274427552790E2AE17BF078607410726
:100FB80030F0AE1BBF0B860B410B089401C0889420
:100FC800551F221F331F111CAA1FBB1F881F441F38
:100FD8009A9551F7F901612D4F913F912F911F91EA
:100FE800662332F0550FEE1FFF1F661F7A9543F2F6
:100FF8007FDE5F91089599239AF0772342F097173F
:1010080048F029F4AE17BF07860720F031F098940E
:101018008894089598940894089518948894089545
:101028007723C2F7971798F3A9F7EA17FB0768071A
:1010380088F399F3ECCF0024AF0DB01D0895F09517
:1010480060957095E195FF4F6F4F7F4F0895FE2F84
:10105800FF0FFF0B6F2F7F2F08956F2F660F660B03
:10106800762F0895002498E0AA0F001C0E1A10F499
:101078000E0E01C0A1609A95B9F7EA2FA02D089528
:1010880039D0F0DF0EF4E19508953F934F935F93C5
:10109800002411244427552730E2AA0FBB1F881FBC
:1010A800991F001C111C441F551F0E1A1F0A460BBE
:1010B800570B28F40E0E1F1E461F571F01C0A160B4
:1010C8003A9559F7FD01BC01D001CA015F914F91D2
:1010D8003F910895E894A7FF02C0A1956894E7FDA1
:1010E800E195C0DFEA2F0EF4E1950895CEDFFD010A
:1010F800BC010895E894E7FF02C0E1956894A7FF52
:1011080004C0A19500F8039400FA0895ED91FC91AC
:1011180011970895ED91FD916D917C911397089524
:10112800E881F9816A817B810895A881B9818A81E2
:101138009B810895E883F9836A837B8308957A9372
:101148006A93FA93EA9308959A938A93BA93AA931F
:101158000895182E862F612D192E972F712D1B2E6D
:10116800BF2FF12D1A2EAE2FE12D08953097604034
:10117800704008955A934A933A932A931A930A937C
:1011880008955D814C813B812A81198108810895E8
:00000001FF
