:0A0000000C9454000C9400000C94C2
:10000A0000000C9400000C9400000C9400000C9466
:10001A0000000C9400000C9400000C9400000C9456
:10002A0000000C942F010C9400000C9400000C9416
:10003A0000000C9400000C9400000C9400000C9436
:10004A00C2000C9400000C948C000C9400000C94D8
:10005A0000000C9400000C9400000C9400000C9416
:10006A0000000C9400000500295C0F3C25392E3352
:10007A00662025392E35662020200D0A20002D4EB7
:10008A00414E000001002D4E414E00494E460000EF
:10009A0001000400700001002C058E000000F89495
:1000AA00EE27EFBBF1E0F5BFE5BFF8E1A895A4B7ED
:1000BA00A77FA4BFF0936000E09360008DE0A2E008
:1000CA00BB27ED938A95E9F780E090E1A0E0B1E0E3
:1000DA00ED930197E9F7EAE9F0E0859195910097A8
:1000EA0061F0A591B59105901590BF01F0010590B9
:1000FA000D920197E1F7FB01F0CFE0E0EEBBEFEFE5
:10010A00EDBFE0E1EEBFC0E0D5E00C944801EA9310
:10011A00FA93EFB7EA931A930A931091C0000091E9
:10012A00C600013739F443944394E8ECE41510F41B
:10013A00E6E94E2E073739F44A944A94E4E14E161A
:10014A0010F4E2E34E2EE12FEC7181F4E32D3394A7
:10015A00F0E0EE5DFA4F0083E8E0E31509F433249A
:10016A007394E8E0E71511F47724F29A099119914A
:10017A00E991EFBFF991E99118950A921A92FA92C8
:10018A006A937A938A939A93AA93BA93EA93FA937D
:10019A00EFB7EA93E0E0E5BDE5E0E6BDE4E0E5BD02
:1001AA00AAE2B5E00E942106E436A0E0FA0734F09C
:1001BA00F19AE0E0E0932A05E0932B05439A8BE05D
:1001CA008A95F1F74398F09B37C02C9A80E18A957B
:1001DA00F1F72C988BE08A95F1F7A0E00E940905C7
:1001EA00F0E0E0931805F0931905A0E00E940905D4
:1001FA00AAE1B5E0F0E0ED93FC93F0911805E0E098
:10020A00DF01E0911A05F0911B05EA0FFB1FE0934D
:10021A001805F0931905F19A0E942706AFE6B2E194
:10022A0083E89AE30E94BD07E0931405F09315054D
:10023A006093160570931705E991EFBFF991E9915B
:10024A00B991A9919991899179916991F9901990A6
:10025A00099018958A939A93EA93EFB7EA935F986D
:10026A00E0E0E093B1004092B200E5E0E093B10033
:10027A0080ED97E00197F1F75F9AE991EFBFE99175
:10028A00999189911895E0E8E0936100E0E0E093A4
:10029A006100E2B9E1B9E5B9E0EBE4B9E0E0E8B957
:1002AA00E7B9EBB9EFEFEAB9E0E0E4BDE3E0E5BDB9
:1002BA00E0E0E6BDE7BDE8BDE0938000E0938100A1
:1002CA00E0938500E0938400E0938700E093860042
:1002DA00E0938900E0938800E0938B00E0938A0022
:1002EA00E093B600E093B000E5E0E093B100E0E00F
:1002FA00E093B200E093B300E093B400E0936900A6
:10030A00EDBBE0936800E1E0E0936E00E0E0E0938B
:10031A006F00E1E0E0937000E2E0E093C000E8E9FA
:10032A00E093C100E6E0E093C200E0E0E093C5009C
:10033A00E0E1E093C400E0E8E0BFE0E0E0937B00A6
:10034A00E0937F00E0937A00E1E5ECBDE1E0EDBDEA
:10035A00E0E0E093BC0078945E985C985D98F19B2D
:10036A002DC05E9A85ED8A95F1F7E6E7F0E0FA93FB
:10037A00EA930E9427060E944409E0911805F09129
:10038A001905662777270E948307A0E0B0E080E27C
:10039A0090E40E940D08DF01CB01E0E0F0E060E8A4
:1003AA0077E40E945B080E94440988E008D32A96F1
:1003BA0080E892E00197F1F75E98F198D0CFFFCFED
:1003CA00AA93E091C000E072E1F3E881E093C600ED
:1003DA0022C3BA93AA93AA81F3DFA881B9810E94A2
:1003EA002106239608950E943006E0E8EA83EFE3A7
:1003FA00EB830E946109EE85FF85EF3FAFEFFA07B5
:10040A0049F4E885F985FA93EA93A8E8B0E00E94EE
:10041A001205B7C0EF3FAFE7FA0749F4E885F98557
:10042A00FA93EA93A9E8B0E00E941205AAC0AB8544
:10043A00A73010F0E6E0EB871B85E12F1150E03082
:10044A0019F00E943706F9CFEC85FD856E857F8508
:10045A000E945B0921F430E00E9437062DC03B85DB
:10046A000E94460609F008F40BC00E9437060E9453
:10047A00460628F00E9451060E945606F8CF0DC083
:10048A000E94460640F40E9451060E9462060E949B
:10049A0069063150F5CF0E943706EC85FD856E85D9
:1004AA007F850E946E060E9469060E94460620F019
:1004BA000E9451060E94560610E0EB85E117A8F14A
:1004CA00AC81BD818E819F810E9475060E946E0655
:1004DA00DF01CB010E946905EC83FD836E837F8374
:1004EA000E9451060E945B080E944A070E2F0E9432
:1004FA007C060E948306FF27662777270E948307C8
:10050A00AC81BD818E819F810E940D080E94510697
:10051A000E9488060E946906E12F1F5FE03069F693
:10052A000E947C06EEE2EC93C8CF0E948D063197BA
:10053A00AA85A08330302CF43195A885B985EDE2DF
:10054A0003C0A885B985EBE2EC930E948D060E9450
:10055A008D063197BF01A32FEAE00E94E508E05D0E
:10056A00DB01EC930E948D063197BF01A32FEAE0CD
:10057A000E940F09E05DDB01EC93A885B985E0E0F4
:10058A00EC930E94680960960895BA93AA93EF972C
:10059A0061970E945F0910E0FE01E85AFF4F01903F
:1005AA00F081E02DE887F987FE01EA5AFF4F0190B2
:1005BA00F081E02DEE83FF83AE81BF81E0E0F0E0C1
:1005CA00ED93FC93DE01A45ABF4F0E942106319796
:1005DA00E4912E2FE03009F4E9C1E12FE03039F43B
:1005EA00253211F411E002C00E949306DEC1E13007
:1005FA00C1F4253219F40E949306D6C112E0E0E054
:10060A00ED8B00E02D3211F401E0CFC12B3219F449
:10061A00EBE2ED8BCAC1203219F4E0E2ED8BC5C1E1
:10062A0002C0E23039F450E013E0203311F40068DC
:10063A00BCC102C0E33091F4203310F02A3308F031
:10064A0007C0AAE05A9F502DE22FE0535E0FADC1BA
:10065A0040E02E3211F414E0A8C10FC0E43099F43E
:10066A00203310F02A3308F008C00062AAE04A9F3B
:10067A00402DE22FE0534E0F98C12C3619F4026038
:10068A0015E093C103C0E53009F08FC1E22FE336CC
:10069A0059F40E949A060E94A1060E949A06A48111
:1006AA00AA930E94A80680C1E53411F0E53609F440
:1006BA0003C0E63609F048C0FE017696EE87FF874A
:1006CA000E94AE060E942F090E94B5060E94BA0631
:1006DA00AD85AA2332F0AD89AB3259F0A03281F050
:1006EA0017C00E94BC060E9417070E94B506EDE2D9
:1006FA00ED8B07FF05C0ED89EA930E94A80608C0A2
:10070A00EE85FF853196EE87FF873197AD89A08305
:10071A0005FF46E0263651F40E94BC060E944409B1
:10072A004A93AB89BC890E94800509C00E94BC0615
:10073A000E9444094A932A93AC89BD8954DEFE017A
:10074A0076960E94C1061EC0E33739F40E94BA06A3
:10075A000E94C9060E94C1060EC0E037C1F40E9479
:10076A00BA060E94C906EE87FF87AE85BF850E943A
:10077A002B051E2F08600F77403011F0411708F043
:10078A0001C0142F40E0E0E0EC8B30E06DC0E436AD
:10079A0011F0E93611F4046002C0E537A1F4EAE089
:1007AA00EC8B01FF08C0E0E0FAEC6AE97BE30E9407
:1007BA00CE061AE022C0E0E1F7E260E070E00E94B3
:1007CA00CE0615E01AC0E83511F4086003C0E83710
:1007DA0009F0EAC0E0E1EC8B01FF08C0E0E0F0E0DC
:1007EA0060E070E10E94CE0618E007C0E0E0F0E1A8
:1007FA0060E070E00E94CE0614E0403011F00F77FE
:10080A0001C041E001FF08C00E94BA060E94AE067C
:10081A0014960E942F090FC002FF07C00E94BA0651
:10082A000E94C9060E94D20806C00E94BA060E9407
:10083A00C90666277727EA87FB876C877D8702FFC9
:10084A0012C0AD85AA2342F40E94BC060E94C408C5
:10085A000E94B506EDE2ED8BED89E03019F01F5FDD
:10086A004F5F01C00B7F342F00FD14C0151710F421
:10087A00351708F00FC007FF08C002FF04C00B7F3E
:10088A002D89115001C020E301C020E20E94930685
:10089A005150ECCF141790F4006102FF06C00E9479
:1008AA00D30609F0515011504150E0E3EA930E94F7
:1008BA00A806503009F051504150ECCF312FEC8945
:1008CA00E030B9F43030A1F003FF06C0EE85FF85B1
:1008DA002591EE87FF8705C0AE85BF852D91AE872E
:1008EA00BF870E949306503009F051503150EACF29
:1008FA0051C00E94E5060E94EA082E2F2A3030F0E5
:10090A0003FF02C0295C01C0295A01C0205D04FD11
:10091A0021C0213360F4A889B9898A899B89A130C9
:10092A00E0E0BE07E0E08E07E0E09E0709F40BC0B6
:10093A00431740F4531710F000FF01C010C020E223
:10094A0007FF08C020E3006102FF04C00E94D3062B
:10095A0009F051500E949306503009F0515031501D
:10096A000E94E5060E941B090E94B506EC89A88927
:10097A00B9898A899B89FF27662777270E94EA080F
:10098A000E94CE06E889F9896A897B890E945B09F7
:10099A0009F0AFCF00FF08C0503031F05150E0E20B
:1009AA00EA930E94A806F8CF10E00CCEAE81BF8170
:1009BA000E942B090E946609EF966F960895FF928E
:1009CA00F82E26971A930A93DE0114960E94C008FD
:1009DA008D01E0E0EC83ED83EE83EF83DE01189670
:1009EA000E94C0080E942B09FA93EA931A930A9369
:1009FA00EEEEF1E0FA93EA93DE011896C6DD19816C
:100A0A0008812896FF900895AA93E881EEBDEDB576
:100A1A00E7FFFDCFEEB521960895BA93AA93E9911F
:100A2A00F991A991B991CD0105900D920020E1F7B4
:100A3A00FC010895BA93AA93A991B991EE27FF27C9
:100A4A006D91662311F03196FBCF0895BA93AA935C
:100A5A00AA27BB27E991F9910590002011F0119678
:100A6A00FBCFFD0108950E9449097B816A81F981C2
:100A7A00E88177FB770F67FD7160972F9E5781F0AA
:100A8A0078F0983190F4AA27BB278827089487958D
:100A9A00B795A7959A95D1F7EA23FB23682305C052
:100AAA00E8947727EE27FF2766276F77769508F46D
:100ABA00606877F9A991B99189919991EA17FB0729
:100ACA006807790797FB08950E9449090E943A0925
:100ADA000E9438050E943F0919F40E94350909C08D
:100AEA00E6F70E943509A0E0B0E080E89FE30E94A3
:100AFA00B60724960895AFD0E0E0EA83EFE3EB83EC
:100B0A001A930A93EB85FC85EF3FAFEFFA0731F4AE
:100B1A0060D1A0E9B0E00E9412058AC0EF3FAFE7BA
:100B2A00FA0731F456D1A1E9B0E00E94120580C05B
:100B3A00AC85AA2352F4E985FA856B857C850E94E7
:100B4A0017074CD150D1EDE2EC93A885A73010F0ED
:100B5A00E6E0E8871885E12F1150E03021F04AD10C
:100B6A00BFD04DD1F8CF50D10E94BD0737D110E088
:100B7A00E0E0F0E060E87FE342D146D10E94A008BD
:100B8A0068F038D19AD03BD11F5F173230F021D1AB
:100B9A00A5E9B0E00E9412054BC0EFCF103021F456
:100BAA0022D1E0E3EC9320C0E12F1150E030E1F0D4
:100BBA0021D196D08ED0DF01CB010E9469051FD1C9
:100BCA0023D10E945B080E944A070E2F0CD196D0AF
:100BDA00F0E010D10E94D2080E9483070E940D08FB
:100BEA001CD191D0FBD0E0CFE885E030E9F0FBD012
:100BFA00EEE2EC93E885E150E887EF5FA9F00DD1CA
:100C0A005CD0ECD0E985FA856B857C850E944A0721
:100C1A000E2FE9D073D0F0E000D10E94D2080E94D2
:100C2A00830771D0DBD0E6CFAE81BF81E0E0EC93E1
:100C3A00198108812D960895ED91FD913196FE93C3
:100C4A00EE930895E0911405F0911505609116054B
:100C5A00709117050895BA93AA932497E0E0E88360
:100C6A00E9830895AC81BD818E819F81E0E0F0E047
:100C7A0060E271E40E940D08EC83FD836E837F833A
:100C8A000895EC81FD816E817F81AC85BD858E855D
:100C9A009F850E94A0080895AC85BD858E859F8595
:100CAA000895EDECFCEC6CEC7DE30E940D08EC87FA
:100CBA00FD876E877F873F5F0895E0E0F0E060E29E
:100CCA0071E40E940D080895EC87FD876E877F877F
:100CDA000895A0E0B0E080E09FE30E94BD07089578
:100CEA00EDECFCEC6CEC7DE30E940D080895A88500
:100CFA00B9851196A887B98711970895E02FE05D05
:100D0A00EC93E02F08950E944E090E94B6070895B9
:100D1A00E885F9853196E887F98708952A93AF819E
:100D2A00B885E985FA8509950895FE01E65AFF4FC7
:100D3A000190F081E02D08953497DE01A65ABF4F45
:100D4A00ED93FC930895AF81B885E985FA850995F5
:100D5A000895DE01A65ABF4F0D90BC91A02D0895AB
:100D6A00EA87FB876C877D870895DFDFE5CFEA8511
:100D7A00FB856C857D850895EE87FF87AE85BF85E7
:100D8A000E941F051E2F0895E4DF14960E942B0966
:100D9A000895E88BF98B6A8B7B8B08950B7FED891D
:100DAA00EA93DE01A95ABF4F0D90BC91A02DFE0116
:100DBA00E75AFF4F0190F081E02D099550300895D0
:100DCA00E889F9896A897B89AA85BB858C859D858D
:100DDA000895EE81FF81FA93EA930895E987FA87E5
:100DEA006B877C870895AE81BF811196AE83BF83DE
:100DFA0011970895AA81BB818C819D810895EA8308
:100E0A00FB836C837D830895EA81FB816C817D81FC
:100E1A00A985BA858B859C850895A985BA858B8510
:100E2A009C85089530976040704009F07058089585
:100E3A00552342F4503811F4E0FF04C03196691F7B
:100E4A00791F6BF050E8572711F45F93CFC05F3FCB
:100E5A0031F0660F000C57956795752F08955F93CB
:100E6A0000200AF0CFC0C8C050E8192E1522880FFA
:100E7A00991F9527550F879550E8072E0522660F6B
:100E8A00771F7527550F67950895689401C0E894F0
:100E9A005F93F2DF703818F07F3F08F4A7C056E17D
:100EAA00571BAAF4519558300EF4593030F0EFEF31
:100EBA00FFEF6FEF7FE777F91AC077275523B9F06D
:100ECA00EE0FFF1F661F771F5A95D1F710C07727BD
:100EDA00583028F0EF2FF62F672F5850F9CF5523A7
:100EEA0031F076956795F795E7955A95D1F70020F1
:100EFA000AF445D15F910895689401C0E894309747
:100F0A0060407040B1F0002426F0772312F4009478
:100F1A0036D1172E7EE1112032F07A95EE0FFF1F9F
:100F2A00661F111CF9CFEF2FF62F612D5F938ADF11
:100F3A005F9108954F93AF01FD01DA01AB01BC0146
:100F4A00CA01402D012C142E4F910895EA0FFB1F60
:100F5A00681F0895E095F0956095EF5FFF4F6F4F1A
:100F6A0008955F9381DF903871F150E8152604C027
:100F7A005F937ADF903839F1703821F1572F591B76
:100F8A002BF112F4D7DFFACF583118F0AA27BB2772
:100F9A008827583028F0AB2FB82F88275850F9CF18
:100FAA00552329F08695B795A7955A95D9F7502DC7
:100FBA00512572F0CBDF38F46795F795E79573956D
:100FCA0013F420C0B7DF3EDF5F910895D8F7FBCF57
:100FDA00EA1BFB0B680B51F010F40094BBDF66238D
:100FEA0092F3EE0FFF1F661F7A95CBF7EE27FF27C6
:100FFA00662777275F910895EFEFFFEF6FE77FEF9F
:10100A005F910895EFEFFFEF6FE77FE75F91089534
:10101A005F932ADF703851F3903841F30124089422
:10102A00791F23F41CF300203AF3ECCF0F921F939D
:10103A002F933F934F93112722279927689FA00147
:10104A008F9F302D410D591F6B9F300D411D591F28
:10105A008E9F27D0BF9F25D06A9F23D0BE9F1DD0C9
:10106A00AF9F1BD0AE9F110D291F391F491F591F52
:10107A00E32FF42F652F522F4F913F912F911F91FC
:10108A000F9066232AF0550FEE1FFF1F661F02C03E
:10109A0073954BF2CDDE5F910895100D211D391F16
:1010AA0002C0200D311D491F591F08955F93DCDED0
:1010BA00703821F411200AF49FCFA4CF903809F494
:1010CA0095CF01240894970B1BF4D4F30020F3CF97
:1010DA00792F1F932F933F934F9311241127222780
:1010EA0033274427552790E2AE17BF0786074107E3
:1010FA0030F0AE1BBF0B860B410B089401C08894DD
:10110A00551F221F331F111CAA1FBB1F881F441FF4
:10111A009A9551F7F901612D4F913F912F911F91A6
:10112A00662332F0550FEE1FFF1F661F7A9543F2B2
:10113A007FDE5F91089599239AF0772342F09717FB
:10114A0048F029F4AE17BF07860720F031F09894CB
:10115A008894089598940894089518948894089502
:10116A007723C2F7971798F3A9F7EA17FB076807D7
:10117A0088F399F3ECCF0024AF0DB01D0895F095D4
:10118A0060957095E195FF4F6F4F7F4F0895FE2F41
:10119A00FF0FFF0B6F2F7F2F08956F2F660F660BC0
:1011AA00762F0895002498E0AA0F001C0E1A10F456
:1011BA000E0E01C0A1609A95B9F7EA2FA02D0895E5
:1011CA0039D0F0DF0EF4E19508953F934F935F9382
:1011DA00002411244427552730E2AA0FBB1F881F79
:1011EA00991F001C111C441F551F0E1A1F0A460B7B
:1011FA00570B28F40E0E1F1E461F571F01C0A16071
:10120A003A9559F7FD01BC01D001CA015F914F918E
:10121A003F910895E894A7FF02C0A1956894E7FD5D
:10122A00E195C0DFEA2F0EF4E1950895CEDFFD01C6
:10123A00BC010895E894E7FF02C0E1956894A7FF0E
:10124A0004C0A19500F8039400FA0895ED91FC9169
:10125A0011970895ED91FD916D917C9113970895E1
:10126A00E881F9816A817B810895A881B9818A819F
:10127A009B810895E883F9836A837B8308957A932F
:10128A006A93FA93EA9308959A938A93BA93AA93DC
:10129A000895182E862F612D192E972F712D1B2E2A
:1012AA00BF2FF12D1A2EAE2FE12D089530976040F1
:1012BA00704008955A934A933A932A931A930A9339
:1012CA0008955D814C813B812A81198108810895A5
:00000001FF
