:100000000C9457000C9400000C9400000C94000019
:100010000C9400000C9400000C9400000C94000060
:100020000C9400000C9400000C9400000C943C0113
:100030000C9400000C9400000C9400000C94000040
:100040000C9400000C9400000C94C5000C9400006B
:100050000C948F000C9400000C9400000C94000091
:100060000C9400000C9400000C9400000C94000010
:100070000500000000000000295C0F3C25362E33EF
:10008000662025342E306620200D0A2000002D4EDB
:10009000414E000001002D4E414E00494E460000E9
:1000A0000700040070000100120994000000F89499
:1000B000EE27EFBBF1E0F5BFE5BFF8E1A895A4B7E7
:1000C000A77FA4BFF0936000E09360008DE0A2E002
:1000D000BB27ED938A95E9F780E090E1A0E0B1E0DD
:1000E000ED930197E9F7E0EAF0E0859195910097AB
:1000F00061F0A591B59105901590BF01F0010590B3
:100100000D920197E1F7FB01F0CFE0E0EEBBEFEFDE
:10011000EDBFE0E1EEBFC0E0D5E00C945501EA93FD
:10012000FA93EFB7EA931A930A931091C0000091E3
:10013000C600013739F443944394E8ECE41510F415
:10014000E6E94E2E073739F44A944A94E4E14E1614
:1001500010F4E2E34E2EE12FEC7181F4E32D3394A1
:10016000F0E0E65FF64F0083E8E0E31509F433249E
:10017000B394E8E0EB1511F4BB24F39A09911991BB
:10018000E991EFBFF991E99118950A921A92FA92C2
:100190006A937A938A939A93AA93BA93EA93FA9377
:1001A000EFB7EA93E0E0E5BDE7EDE6BDE3E0E5BDEE
:1001B000F29B3EC02C9A85E18A95F1F72C98A0E03D
:1001C0000E944305F0E0E0931805F0931905A0E0C4
:1001D0000E944305AAE1B5E0F0E0ED93FC93F091B5
:1001E0001805E0E0DF01E0911A05F0911B05EA0F28
:1001F000FB1FE0931805F0931905E72DF82DA2E2F7
:10020000B5E0EE0FFF1FEA0FFB1FA0911805B0919C
:100210001905A083B183E1E0F0E07E0E8F1EE4EFCC
:10022000F1E0E715F80520F4F298F19A7724882494
:10023000E0911405F0911505609116057091170570
:10024000AFE6B2E183E89AE30E94E807E093140581
:10025000F09315056093160570931705E991EFBFAC
:10026000F991E991B991A9919991899179916991BE
:10027000F9901990099018958A939A93EA93EFB799
:10028000EA935F98E0E0E093B1004092B200E5E0CD
:10029000E093B10080ED97E00197F1F75F9AE99163
:1002A000EFBFE991999189911895E0E8E093610099
:1002B000E0E0E0936100E2B9E1B9E5B9EFEBE4B960
:1002C000E0E0E8B9E7B9EBB9EFEFEAB9E0E0E4BDA7
:1002D000E3E0E5BDE5E0E6BDE0E0E7BDE8BDE093D5
:1002E0008000E0938100E0938500E0938400E09338
:1002F0008700E0938600E0938900E0938800E09314
:100300008B00E0938A00E093B600E093B000E5E054
:10031000E093B100E0E0E093B200E093B300E0933B
:10032000B400E0936900EDBBE0936800E1E0E09386
:100330006E00E0936E00E0E0E0936F00E1E0E09398
:100340007000E2E0E093C000E8E9E093C100E6E07D
:10035000E093C200E0E0E093C500E3E0E093C40076
:10036000E0E0E093C500E1E0E093C400E0E8E0BF36
:10037000E0E0E0937B00E0937F00E0937A00E1E52A
:10038000ECBDE1E0EDBDE0E0E093BC0078945E9868
:100390005C985D98F29AF19A9924AA24F29947C040
:1003A000F19B45C05E9A80E28A95F1F7ECE7F0E0B8
:1003B000FA93EA93E92DFA2DA2E2B5E0EE0FFF1FC2
:1003C000AE0FBF1F0E945609662777270E94AE070F
:1003D000A0E0B0E080E290E40E943808DF01CB01A9
:1003E000E0E0F0E060E877E40E9486080E946F0990
:1003F000E92DFA2D662777270E94AE07A0E0B0E02E
:1004000080E89FE30E9438080E946F0988E016D3B5
:100410002A965E9AF19AE4EFF1E0E915FA0519F4EB
:100420009924AA24F29AE1E0F0E09E0EAF1EB6CF26
:10043000FFCFAA93E091C000E072E1F3E881E0937E
:10044000C60028C3BA93AA93AA81F3DFA881B98111
:10045000ED91FD913196FE93EE93239608950E94BF
:100460005B06E0E8EA83EFE3EB830E948C09EE850C
:10047000FF85EF3FAFEFFA0749F4E885F985FA9376
:10048000EA93AEE8B0E00E949405B7C0EF3FAFE753
:10049000FA0749F4E885F985FA93EA93AFE8B0E002
:1004A0000E949405AAC0AB85A73010F0E6E0EB8768
:1004B0001B85E12F1150E03019F00E946206F9CF40
:1004C000EC85FD856E857F850E94860921F430E0EC
:1004D0000E9462062DC03B850E94710609F008F457
:1004E0000BC00E9462060E94710628F00E947C06E2
:1004F0000E948106F8CF0DC00E94710640F40E9450
:100500007C060E948D060E9494063150F5CF0E9411
:100510006206EC85FD856E857F850E9499060E94A6
:1005200094060E94710620F00E947C060E948106BB
:1005300010E0EB85E117A8F1AC81BD818E819F8130
:100540000E94A0060E949906DF01CB010E947D0552
:10055000EC83FD836E837F830E947C060E94860865
:100560000E9475070E2F0E94A7060E94AE06FF2765
:10057000662777270E94AE07AC81BD818E819F815F
:100580000E9438080E947C060E94B3060E949406CE
:10059000E12F1F5FE03069F60E94A706EEE2EC93C0
:1005A000C8CF0E94B8063197AA85A08330302CF4BA
:1005B0003195A885B985EDE203C0A885B985EBE240
:1005C000EC930E94B8060E94B8063197BF01A32F92
:1005D000EAE00E941009E05DDB01EC930E94B8069E
:1005E0003197BF01A32FEAE00E943A09E05DDB01E9
:1005F000EC93A885B985E0E0EC930E94930960969E
:100600000895BA93AA93EF9761970E948A0910E020
:10061000FE01E85AFF4F0190F081E02DE887F9874D
:10062000FE01EA5AFF4F0190F081E02DEE83FF8337
:10063000AE81BF81E0E0F0E0ED93FC93DE01A45ACF
:10064000BF4FED91FD913196FE93EE933197E4917A
:100650002E2FE03009F4E9C1E12FE03039F42532E2
:1006600011F411E002C00E94BE06DEC1E130C1F407
:10067000253219F40E94BE06D6C112E0E0E0ED8BEF
:1006800000E02D3211F401E0CFC12B3219F4EBE27E
:10069000ED8BCAC1203219F4E0E2ED8BC5C102C076
:1006A000E23039F450E013E0203311F40068BCC1AB
:1006B00002C0E33091F4203310F02A3308F007C071
:1006C000AAE05A9F502DE22FE0535E0FADC140E0EB
:1006D0002E3211F414E0A8C10FC0E43099F4203395
:1006E00010F02A3308F008C00062AAE04A9F402DAB
:1006F000E22FE0534E0F98C12C3619F4026015E03A
:1007000093C103C0E53009F08FC1E22FE33659F4FD
:100710000E94C5060E94CC060E94C506A481AA9329
:100720000E94D30680C1E53411F0E53609F403C018
:10073000E63609F048C0FE017696EE87FF870E94F4
:10074000D9060E945A090E94E0060E94E506AD857E
:10075000AA2332F0AD89AB3259F0A03281F017C034
:100760000E94E7060E9442070E94E006EDE2ED8B40
:1007700007FF05C0ED89EA930E94D30608C0EE8505
:10078000FF853196EE87FF873197AD89A08305FFFE
:1007900046E0263651F40E94E7060E946F094A930C
:1007A000AB89BC890E94BA0509C00E94E7060E9475
:1007B0006F094A932A93AC89BD8951DEFE01769672
:1007C0000E94EC061EC0E33739F40E94E5060E9441
:1007D000F4060E94EC060EC0E037C1F40E94E50664
:1007E0000E94F406EE87FF87AE85BF850E94AD05A7
:1007F0001E2F08600F77403011F0411708F001C03C
:10080000142F40E0E0E0EC8B30E06DC0E43611F0F6
:10081000E93611F4046002C0E537A1F4EAE0EC8B9C
:1008200001FF08C0E0E0FAEC6AE97BE30E94F90608
:100830001AE022C0E0E1F7E260E070E00E94F90611
:1008400015E01AC0E83511F4086003C0E83709F074
:10085000EAC0E0E1EC8B01FF08C0E0E0F0E060E01E
:1008600070E10E94F90618E007C0E0E0F0E160E006
:1008700070E00E94F90614E0403011F00F7701C0DB
:1008800041E001FF08C00E94E5060E94D9061496C7
:100890000E945A090FC002FF07C00E94E5060E948D
:1008A000F4060E94FD0806C00E94E5060E94F406B8
:1008B00066277727EA87FB876C877D8702FF12C050
:1008C000AD85AA2342F40E94E7060E94EF080E9429
:1008D000E006EDE2ED8BED89E03019F01F5F4F5F30
:1008E00001C00B7F342F00FD14C0151710F435170D
:1008F00008F00FC007FF08C002FF04C00B7F2D895E
:10090000115001C020E301C020E20E94BE065150F8
:10091000ECCF141790F4006102FF06C00E94FE069F
:1009200009F0515011504150E0E3EA930E94D30680
:10093000503009F051504150ECCF312FEC89E0306C
:10094000B9F43030A1F003FF06C0EE85FF85259194
:10095000EE87FF8705C0AE85BF852D91AE87BF8727
:100960000E94BE06503009F051503150EACF51C0BC
:100970000E9410070E9415092E2F2A3030F003FF25
:1009800002C0295C01C0295A01C0205D04FD21C0BC
:10099000213360F4A889B9898A899B89A130E0E074
:1009A000BE07E0E08E07E0E09E0709F40BC04317A6
:1009B00040F4531710F000FF01C010C020E207FF01
:1009C00008C020E3006102FF04C00E94FE0609F097
:1009D00051500E94BE06503009F0515031500E94D3
:1009E00010070E9446090E94E006EC89A889B9898F
:1009F0008A899B89FF27662777270E9415090E940D
:100A0000F906E889F9896A897B890E94860909F0D3
:100A1000AFCF00FF08C0503031F05150E0E2EA9310
:100A20000E94D306F8CF10E009CEAE81BF810E94AC
:100A300056090E949109EF966F960895FF92F82E3D
:100A400026971A930A93DE0114960E94EB088D01F3
:100A5000E0E0EC83ED83EE83EF83DE0118960E94E5
:100A6000EB080E945609FA93EA931A930A93E2E27A
:100A7000F2E0FA93EA93DE011896C3DD198108814A
:100A80002896FF900895AA93E881EEBDEDB5E7FFA3
:100A9000FDCFEEB5219608950E9474097B816A818D
:100AA000F981E88177FB770F67FD7160972F9E577B
:100AB00081F078F0983190F4AA27BB278827089412
:100AC0008795B795A7959A95D1F7EA23FB236823D5
:100AD00005C0E8947727EE27FF2766276F7776957E
:100AE00008F4606877F9A991B99189919991EA1709
:100AF000FB076807790797FB08950E9474090E9415
:100B000065090E944C050E946A0919F40E94600957
:100B100009C0E6F70E946009A0E0B0E080E89FE32A
:100B20000E94E10724960895BA93AA93E991F99156
:100B3000A991B991CD0105900D920020E1F7FC013A
:100B40000895BA93AA93A991B991EE27FF276D91C1
:100B5000662311F03196FBCF0895BA93AA93AA2782
:100B6000BB27E991F9910590002011F01196FBCF78
:100B7000FD010895A0D0E0E0EA83EFE3EB831A9350
:100B80000A93EB85FC85EF3FAFEFFA0731F451D1C3
:100B9000A6E9B0E00E9494058AC0EF3FAFE7FA07EC
:100BA00031F447D1A7E9B0E00E94940580C0AC853C
:100BB000AA2352F4E985FA856B857C850E94420759
:100BC0003DD141D1EDE2EC93A885A73010F0E6E0ED
:100BD000E8871885E12F1150E03021F03BD1B0D0EB
:100BE0003ED1F8CF41D10E94E80728D110E0E0E0E3
:100BF000F0E060E87FE333D137D10E94CB0868F0A2
:100C000029D18BD02CD11F5F173230F012D1ABE934
:100C1000B0E00E9494054BC0EFCF103021F413D107
:100C2000E0E3EC9320C0E12F1150E030E1F012D16D
:100C300087D07FD0DF01CB010E947D0510D114D178
:100C40000E9486080E9475070E2FFDD087D0F0E025
:100C500001D10E94FD080E94AE070E9438080DD104
:100C600082D0ECD0E0CFE885E030E9F0ECD0EEE2E5
:100C7000EC93E885E150E887EF5FA9F0FED04DD016
:100C8000DDD0E985FA856B857C850E9475070E2F7E
:100C9000DAD064D0F0E0F1D00E94FD080E94AE07E7
:100CA00062D0CCD0E6CFAE81BF81E0E0EC93198179
:100CB00008812D960895BA93AA932497E0E0E883DB
:100CC000E9830895AC81BD818E819F81E0E0F0E0F1
:100CD00060E271E40E943808EC83FD836E837F83B9
:100CE0000895EC81FD816E817F81AC85BD858E8507
:100CF0009F850E94CB080895AC85BD858E859F8514
:100D00000895EDECFCEC6CEC7DE30E943808EC8778
:100D1000FD876E877F873F5F0895E0E0F0E060E247
:100D200071E40E9438080895EC87FD876E877F87FD
:100D30000895A0E0B0E080E09FE30E94E8070895F6
:100D4000EDECFCEC6CEC7DE30E9438080895A8857E
:100D5000B9851196A887B98711970895E02FE05DAE
:100D6000EC93E02F08950E9479090E94E10708950D
:100D7000E885F9853196E887F98708952A93AF8148
:100D8000B885E985FA8509950895FE01E65AFF4F71
:100D90000190F081E02D08953497DE01A65ABF4FEF
:100DA000ED93FC930895AF81B885E985FA8509959F
:100DB0000895DE01A65ABF4F0D90BC91A02D089555
:100DC000EA87FB876C877D870895DFDFE5CFEA85BB
:100DD000FB856C857D850895EE87FF87AE85BF8591
:100DE0000E94A1051E2F0895E4DF14960E94560963
:100DF0000895E88BF98B6A8B7B8B08950B7FED89C7
:100E0000EA93DE01A95ABF4F0D90BC91A02DFE01BF
:100E1000E75AFF4F0190F081E02D09955030089579
:100E2000E889F9896A897B89AA85BB858C859D8536
:100E30000895EE81FF81FA93EA930895E987FA878E
:100E40006B877C870895AE81BF811196AE83BF8387
:100E500011970895AA81BB818C819D810895EA83B1
:100E6000FB836C837D830895EA81FB816C817D81A6
:100E7000A985BA858B859C850895A985BA858B85BA
:100E80009C85089530976040704009F0705808952F
:100E9000552342F4503811F4E0FF04C03196691F25
:100EA000791F6BF050E8572711F45F93CFC05F3F75
:100EB00031F0660F000C57956795752F08955F9375
:100EC00000200AF0CFC0C8C050E8192E1522880FA4
:100ED000991F9527550F879550E8072E0522660F15
:100EE000771F7527550F67950895689401C0E8949A
:100EF0005F93F2DF703818F07F3F08F4A7C056E127
:100F0000571BAAF4519558300EF4593030F0EFEFDA
:100F1000FFEF6FEF7FE777F91AC077275523B9F016
:100F2000EE0FFF1F661F771F5A95D1F710C0772766
:100F3000583028F0EF2FF62F672F5850F9CF552350
:100F400031F076956795F795E7955A95D1F700209A
:100F50000AF445D15F910895689401C0E8943097F0
:100F600060407040B1F0002426F0772312F4009422
:100F700036D1172E7EE1112032F07A95EE0FFF1F49
:100F8000661F111CF9CFEF2FF62F612D5F938ADFBB
:100F90005F9108954F93AF01FD01DA01AB01BC01F0
:100FA000CA01402D012C142E4F910895EA0FFB1F0A
:100FB000681F0895E095F0956095EF5FFF4F6F4FC4
:100FC00008955F9381DF903871F150E8152604C0D1
:100FD0005F937ADF903839F1703821F1572F591B20
:100FE0002BF112F4D7DFFACF583118F0AA27BB271C
:100FF0008827583028F0AB2FB82F88275850F9CFC2
:10100000552329F08695B795A7955A95D9F7502D70
:10101000512572F0CBDF38F46795F795E795739516
:1010200013F420C0B7DF3EDF5F910895D8F7FBCF00
:10103000EA1BFB0B680B51F010F40094BBDF662336
:1010400092F3EE0FFF1F661F7A95CBF7EE27FF276F
:10105000662777275F910895EFEFFFEF6FE77FEF48
:101060005F910895EFEFFFEF6FE77FE75F910895DE
:101070005F932ADF703851F3903841F301240894CC
:10108000791F23F41CF300203AF3ECCF0F921F9347
:101090002F933F934F93112722279927689FA001F1
:1010A0008F9F302D410D591F6B9F300D411D591FD2
:1010B0008E9F27D0BF9F25D06A9F23D0BE9F1DD073
:1010C000AF9F1BD0AE9F110D291F391F491F591FFC
:1010D000E32FF42F652F522F4F913F912F911F91A6
:1010E0000F9066232AF0550FEE1FFF1F661F02C0E8
:1010F00073954BF2CDDE5F910895100D211D391FC0
:1011000002C0200D311D491F591F08955F93DCDE79
:10111000703821F411200AF49FCFA4CF903809F43D
:1011200095CF01240894970B1BF4D4F30020F3CF40
:10113000792F1F932F933F934F9311241127222729
:1011400033274427552790E2AE17BF07860741078C
:1011500030F0AE1BBF0B860B410B089401C0889486
:10116000551F221F331F111CAA1FBB1F881F441F9E
:101170009A9551F7F901612D4F913F912F911F9150
:10118000662332F0550FEE1FFF1F661F7A9543F25C
:101190007FDE5F91089599239AF0772342F09717A5
:1011A00048F029F4AE17BF07860720F031F0989475
:1011B00088940895989408940895189488940895AC
:1011C0007723C2F7971798F3A9F7EA17FB07680781
:1011D00088F399F3ECCF0024AF0DB01D0895F0957E
:1011E00060957095E195FF4F6F4F7F4F0895FE2FEB
:1011F000FF0FFF0B6F2F7F2F08956F2F660F660B6A
:10120000762F0895002498E0AA0F001C0E1A10F4FF
:101210000E0E01C0A1609A95B9F7EA2FA02D08958E
:1012200039D0F0DF0EF4E19508953F934F935F932B
:10123000002411244427552730E2AA0FBB1F881F22
:10124000991F001C111C441F551F0E1A1F0A460B24
:10125000570B28F40E0E1F1E461F571F01C0A1601A
:101260003A9559F7FD01BC01D001CA015F914F9138
:101270003F910895E894A7FF02C0A1956894E7FD07
:10128000E195C0DFEA2F0EF4E1950895CEDFFD0170
:10129000BC010895E894E7FF02C0E1956894A7FFB8
:1012A00004C0A19500F8039400FA0895ED91FC9113
:1012B00011970895ED91FD916D917C91139708958B
:1012C000E881F9816A817B810895A881B9818A8149
:1012D0009B810895E883F9836A837B8308957A93D9
:1012E0006A93FA93EA9308959A938A93BA93AA9386
:1012F0000895182E862F612D192E972F712D1B2ED4
:10130000BF2FF12D1A2EAE2FE12D0895309760409A
:10131000704008955A934A933A932A931A930A93E2
:1013200008955D814C813B812A811981088108954E
:00000001FF
